:100000000C9468000C9487000C9487000C94870073
:100010000C9487000C9487000C9487000C94870044
:100020000C9487000C9487000C9487000C94870034
:100030000C9487000C9487000C9487000C94870024
:100040000C9487000C9487000C9487000C94870014
:100050000C9487000C9487000C9487000C94870004
:100060000C9487000C9487000C9487000C948700F4
:100070000C9487000C9487000C9487000C948700E4
:100080000C9487000C9487000C94870048656C6C76
:100090006F20776F726C64202D20524F4D20737447
:1000A00072696E67202D204920210D0A0048656C79
:1000B0006C6F20776F726C64202D20524F4D20732F
:1000C0007472696E67202D20494920210D0A0000B5
:1000D00011241FBECFEFD0E1DEBFCDBF11E0A0E005
:1000E000B1E0E6E9F1E000E00BBF02C007900D923D
:1000F000AE31B107D9F711E0AEE1B1E001C01D9218
:10010000AE31B107E1F70E94B3000C94CA000C9421
:100110000000292F33272093900089B988E18AB9FC
:100120008EE0809395000895FC018081882339F04A
:100130005D9BFECF8CB9319680818823C9F70895E5
:10014000FC01C895802D882341F05D9BFECF8CB9C2
:100150003196C895802D8823C1F708955F9BFECF07
:100160008CB1992708958FE590E00E94890080E086
:1001700091E00E9494000E94AE008CE890E00E9402
:10018000A0000E94AE008DEA90E00E94A0000E94B4
:06019000AE00EDCFFFCF31
:1001960048656C6C6F20776F726C64202D2052411D
:0E01A6004D20737472696E6720210D0A0000EF
:00000001FF
