:100000000C9446000C945D000C945D000C945D0013
:100010000C945D000C945D000C945D000C945D00EC
:100020000C945D000C945D000C945D000C945D00DC
:100030000C945D000C945D000C945D000C945D00CC
:100040000C945D000C945D000C945D000C945D00BC
:100050000C945D000C945D000C945D000C945D00AC
:100060000C945D000C945D000C945D000C945D009C
:100070000C945D000C945D000C945D000C945D008C
:100080000C945D000C945D000C945D0011241FBE67
:10009000CFEFD0E1DEBFCDBF11E0A0E0B1E0ECEAF0
:1000A000F2E000E00BBF02C007900D92A030B10754
:1000B000D9F70E945F000C9454010C940000DF9368
:1000C000CF93CDB7DEB70E94E0000E946800FBCF5F
:1000D000DF93CF9300D00F92CDB7DEB78A8388E04D
:1000E0008983A1E3B0E0E1E3F0E0808180628C935A
:1000F000A1E3B0E0E1E3F0E0808180688C93A1E3CC
:10010000B0E0E1E3F0E0808180648C93A2E3B0E0B2
:10011000E2E3F0E080818F7D8C93A2E3B0E0E2E344
:10012000F0E080818F778C932FC08A81282F30E078
:100130008981882F90E0A90102C0559547958A953D
:10014000E2F7CA0181709070882341F0A2E3B0E029
:10015000E2E3F0E0808180648C9307C0A2E3B0E02A
:10016000E2E3F0E080818F7B8C93A2E3B0E0E2E3F6
:10017000F0E0808180688C930000A2E3B0E0E2E3CD
:10018000F0E080818F778C9359815B838B8188230A
:1001900011F041E04B838B819981915099838823A1
:1001A00009F0C3CF0000A2E3B0E0E2E3F0E0808119
:1001B00080628C930F900F900F90CF91DF910895F4
:1001C000DF93CF9300D00F92CDB7DEB71A8287E0CE
:1001D0008983A1E3B0E0E1E3F0E0808184608C9367
:1001E000A1E3B0E0E1E3F0E0808180688C93A1E3DB
:1001F000B0E0E1E3F0E080818F7E8C93A2E3B0E099
:10020000E2E3F0E080818F778C93A2E3B0E0E2E359
:10021000F0E080818B7F8C930000A2E3B0E0E2E30A
:10022000F0E0808184608C93E0E3F0E08081882FAF
:1002300090E080719070009719F18A8181608A83C3
:100240001FC0A2E3B0E0E2E3F0E0808180688C931D
:1002500000008A81880F8A83E0E3F0E08081882FA4
:1002600090E080719070009719F08A8181608A8394
:10027000A2E3B0E0E2E3F0E080818F778C930000AE
:1002800089818B838B81882311F081E08B838B8123
:100290009981915099838823A1F68A810F900F90BC
:0C02A0000F90CF91DF910895F894FFCFEC
:00000001FF
