:100000000C9473000C9490000C9490000C9490004D
:100010000C9490000C9490000C9490000C94900020
:100020000C9490000C9490000C9490000C94900010
:100030000C9490000C9490000C9490000C94900000
:100040000C9490000C9490000C9490000C949000F0
:100050000C9490000C9490000C9490000C949000E0
:100060000C9490000C9490000C9490000C949000D0
:100070000C9490000C9490000C9490000C949000C0
:100080000C9490000C9490000C9490000D41546DD1
:1000900065676131323820412F442073696E676C87
:1000A0006520656E64656420616E642064696666BF
:1000B0006572656E7469616C206578616D706C65E0
:1000C0000A4275696C64206F6E2025732C2025739D
:1000D0002077697468204156522D47434320256498
:1000E0002E25640A0A0011241FBECFEFD0E1DEBF27
:1000F000CDBF11E0A0E0B1E0E8E1F5E100E00BBF29
:1001000002C007900D92AA33B107D9F711E0AAE314
:10011000B1E001C01D92A034B107E1F70C94840650
:100120000C9400002F923F924F925F926F927F92B9
:100130008F929F92AF92BF92CF92DF92EF92FF92F7
:100140000F931F93CF93DF93CDB7DEB72A970FB6E8
:10015000F894DEBF0FBECDBF1C015A016B012D8389
:100160001F830E8327FF02C01D8205C02D8126320A
:1001700014F065E26D8318862101C10188969A8783
:10018000898720E030E040E050E0C601B5010E94E0
:10019000FC0888235CF4EE81FF818081918182607C
:1001A00091838083D7FAD094D7F8D094AE014F5F73
:1001B0005F4FC601B5010E945C095B016C0189813A
:1001C0009A81AB81BC8120E030E040E050E0BC018E
:1001D000CD010E94FC08882309F44AC009851A85CC
:1001E0002AC02DEC3CEC4CEC5DE3C401B3010E9451
:1001F0008C09DC01CB01AE014F5F5F4FBC01CD012B
:100200000E945C09DC01CB012AE939E941E251E4B1
:10021000BC01CD010E948C09DC01CB01BC01CD01E8
:100220000E94E108DC01CB01805DF80182938F011F
:10023000F885FF5FF88769807A808B809C8020E05A
:1002400030E040E050E0C401B3010E94FC08882384
:1002500019F02016310628F289859A8508171907A2
:1002600068F5F80181918F01F20181932F01F4CF9C
:1002700020E030E040E050E0C601B5010E94FF08F8
:100280001816E4F405C057016801988591509887C5
:1002900020E030E040E251E4C601B5010E948C0943
:1002A0007B018C0120E030E040E85FE30E94FC0825
:1002B00087FDE9CFE982FA820B831C83EE81FF81FF
:1002C0004081518153FF15C0F885FD3F94F02F2FD9
:1002D000332727FD30956D81862F992787FD9095CF
:1002E0000196281739072CF45460EE81FF81518361
:1002F0004083EE81FF81808191819C012070347068
:1003000092FD03C0FD81FF5FFD836D81062F1127E4
:1003100007FD1095020D131D232B39F0E8858E2F54
:10032000992787FD9095080F191F0215130520F5D1
:10033000F10158C089859A854816590600F520E0D4
:1003400030E040E251E4C601B5010E948C09AE01E3
:100350004F5F5F4F0E945C095B016C0189819A814C
:10036000AB81BC81BC01CD010E94E108DC01CB0165
:10037000805DF20181932F0104151505D8F6E985FA
:10038000FA850E171F0718F0F10117A22CC02801DB
:10039000F80180818B5F80838A331CF120E331E395
:1003A000F80120832016310628F482918F018F5F97
:1003B000808313C0F8013083F885FF5FF887EE81F2
:1003C000FF818081918192FF08C02414350410F4CC
:1003D000F20120830894411C511CF80180818A336A
:1003E000FCF6F2011082F8858F2F992787FD9095F2
:1003F0002A960FB6F894DEBF0FBECDBFDF91CF9126
:100400001F910F91FF90EF90DF90CF90BF90AF9032
:100410009F908F907F906F905F904F903F902F9024
:1004200008952F923F924F925F926F927F928F9298
:100430009F92AF92BF92CF92DF92EF92FF920F9373
:100440001F93CF93DF93CDB7DEB7EE970FB6F89437
:10045000DEBF0FBECDBF8824992454013C0178AF84
:100460006FAB1A011EAA1DAAFC0117821682838196
:1004700081FD1EC48FEF9FEF2EC48FA998AD01960A
:1004800098AF8FAB6DA97EA960FFFEC389AD805385
:100490008A30C8F499AD903331F4552021F463FDCE
:1004A00002C07160ABC18AE0589E502C1124E9ADA6
:1004B0005E0EF0ED5F0E57FE02C05FE7552E63FD46
:1004C000F7C3452CF5C329AD25562EAF233028F0B0
:1004D00089AD8554833008F01EC1F10184E090E0BD
:1004E000280E391EE080F1800281138147015801F6
:1004F00063FD02C046E0542E37EBC32E3FEFD32EF0
:10050000C622D722DEAACDAAC801B7010E944C0993
:10051000892BB9F08EE48B83898381E48A83FE0181
:100520003496FCAFEBAFFEADF33008F0ADC289817D
:10053000805E89838A81805E8A838B81805E8B83E3
:10054000A3C2C801B7010E945309892BC9F089E4ED
:100550008B838EE48A8386E48983CE0104969CAFE4
:100560008BAF20E030E040E050E0C801B7010E94CE
:10057000FC088823C4F68DE28C83FE013596D1CF2A
:1005800080E092E0C82AD92ADEAACDAAE9AD8E2F52
:10059000992787FD90958734910509F45CC08834CC
:1005A00091053CF48534910599F08634910561F10B
:1005B0007FC38636910541F18736910524F485364F
:1005C000910531F075C38736910509F444C070C3B5
:1005D0008E010B5C1F4F252DB501A401CE010D9698
:1005E0000E9492008DAFFCEF4F0E15140CF44A944C
:1005F000CE010D969CAF8BAFFC0101900020E9F776
:1006000031978E2E881ABFC18DA99EA994609EAB8A
:100610008DAB8E010B5C1F4F252DB501A401CE01C2
:100620000D960E9492008DAF15140CF44A94FE01B1
:100630003D96FCAFEBAFFDAD1F1654F4EBADFCAD3A
:1006400001900020E9F731978E2E2BAD821A9BC1C5
:10065000852C839498C18DA99EA998609EAB8DAB83
:10066000252D552009F421E08E010B5C1F4FB501AB
:10067000A401CE010D960E9492008DAF8DA99EA976
:1006800092FF27C08DAD850D8150882E87FD15C046
:100690008DAD881694F09E012F5F3F4FE82DFF2708
:1006A000E7FDF095E20FF31F8485803331F48A94DF
:1006B00087FC03C09DAD89168CF787FC03C0EDADA8
:1006C0008E1614F4552418C0582CFDAD5F1A53949F
:1006D00013C0852C15147CF49E012F5F3F4FE82D2D
:1006E000FF27E7FDF095E20FF31F8485803319F4AF
:1006F0008A941814A4F3582CE82DFF27E7FDF095F1
:10070000EC0FFD1F16868DA99EA992FD8DCF29ADF8
:10071000225029AF68CF63FF04C0552011F421E0B7
:10072000522EE9AD8E2F992787FD90958936910538
:1007300009F4A5C08A3691057CF58335910509F445
:1007400083C084359105BCF48B32910509F443C014
:100750008C3291054CF48032910509F43FC083320C
:10076000910509F443C08AC28D329105E9F18E32B8
:100770009105F1F183C28336910509F442C08436B4
:1007800091052CF48835910509F4AEC077C2843602
:10079000910509F474C072C28037910509F49FC0B5
:1007A0008137910544F48C36910539F18F369105E6
:1007B00009F492C063C28537910509F497C0863762
:1007C000910524F48337910521F158C288379105AA
:1007D00009F48AC053C260617EAB6DAB8DA99EA93E
:1007E00080629EAB8DAB64C2606808C0606406C066
:1007F00068607EAB6DAB55245BC264607EAB6DAB55
:1008000057C2F10182E090E0280E391E80804A94A0
:100810003BC1F10182E090E0280E391EA081B18138
:100820004D0163FF09C0852D992787FD9095BC0177
:10083000CD010E946F081FC0FD0101900020E9F763
:100840003197EA1BEAAF18C0F10182E090E0280E70
:10085000391E0190F081E02D4F0163FF09C0852D05
:10086000992787FD9095BC01CF010E94640803C0C1
:10087000CF010E945B088AAF9AAD491A05C162FF99
:100880000AC0F10184E090E0280E391E20813181F8
:10089000428153810CC0F10182E090E0280E391EA4
:1008A000808191819C01442737FD4095542F490157
:1008B0005A0157FF0BC062607EAB6DABB094A09441
:1008C00090948094811C911CA11CB11C8DA99EA99F
:1008D0008F7B9EAB8DAB27C098E09AAF07C060645A
:1008E0007EAB6DABE8E7E9AFF0E1FAAF6DA97EA9A9
:1008F00062FF0AC0F10184E090E0280E391E2081D9
:100900003181428153810AC0F10182E090E0280EDA
:10091000391E808191819C014427552749015A0144
:100920006F7C7EAB6DABFE013196FCAFEBAF6F0120
:10093000FAADEF2EFF2400271127C501B401A8014D
:1009400097010E94560ADC01CB01EBADFCAD808320
:100950008A3024F0F9AD8F0F815201C0805DEBAD7C
:10096000FCAD8193FCAFEBAFC501B401A8019701C9
:100970000E94560A49015A012115310541055105C8
:10098000E1F68BAC8C184DA95EA9CA0182739070F8
:10099000892B09F04A9446FF0DC0842D992787FDC5
:1009A0009095FAADF03121F49EEF492E480E02C029
:1009B000482E4A9443FF0EC0252D332727FD30953E
:1009C000882D99278217930724F0477F5EAB4DABA4
:1009D00001C058188DA99EA983FF02C0451801C007
:1009E000481880789170892B51F4842D4A941816F8
:1009F00034F4B30180E290E00E947A08F6CF8DA92A
:100A00009EA981FF04C0B3018DE290E00BC084FF7A
:100A100004C0B3018BE290E005C085FF05C0B301BF
:100A200080E290E00E947A088DA99EA986FF10C0FE
:100A3000B30180E390E00E947A082AAD203141F4AE
:100A4000B301E9AD8E2F992787FD90950E947A0812
:100A50008DA99EA990FF0AC0842D4A94181634F4DB
:100A6000B30180E390E00E947A08F6CF8DA99EA999
:100A700083FF0AC0852D5A94181634F4B30180E31D
:100A800090E00E947A08F6CF8DA987FD0AC0842DD8
:100A90004A94181634F4B30180E290E00E947A0878
:100AA000F6CFF9ADF33631F4882DB301992787FDE0
:100AB0009095C0C029AD2337B9F48AAD81508AAF73
:100AC0008F3F09F4CEC0F40180810894811C911CF1
:100AD000B301992787FD90950E947A089AAD9150AD
:100AE0009AAF9F3F81F7BDC0E9ADE33581F4FAAD20
:100AF000F150FAAFFF3F09F4B4C0F4018491B3019F
:100B000099270E947A080894811C911CF0CF8DA926
:100B10009EA991FF92C092FF1DC02DAD1216B4F494
:100B200021502DAF2F3F81F0EBADFCAD8191FCAF9B
:100B3000EBAFB301992787FD90950E947A08FDAD30
:100B4000F150FDAFFF3F81F71DAE0FC0B30180E351
:100B500090E009C0EBADFCAD8191FCAFEBAFB30110
:100B6000992787FD90950E947A0815142CF4B301FB
:100B70008EE290E00E947A088DA99EA992FF20C083
:100B80008DADF82FFF5FFDAF0DC0852D5A9418165F
:100B9000BCF4B30180E390E00E947A088DAD282F69
:100BA0002F5F2DAF88238CF30BC0852D5A94181618
:100BB0007CF4882DB301992787FD90950E947A08CF
:100BC000EBADFCAD8191FCAFEBAF882E882369F7CC
:100BD0008DA99EA992FD45C0B301F9AD8F2F99272C
:100BE00087FD90950E947A082DAD21502DAF27FFEB
:100BF00009C0B3018DE290E00E947A088DAD819525
:100C00008DAF05C0B3018BE290E00E947A086AE0E4
:100C100070E0EDAD8E2F992787FD90950E94430AD5
:100C20004B015C01B301C401C0960E947A08B30174
:100C3000C501C0960E947A0814C08E010F5F1F4F35
:100C40008BAD9CAD8017910761F0EBADFCAD82914F
:100C5000FCAFEBAFB301992787FD90950E947A080E
:100C6000EFCF8DA987FF0DC0842D4A9418164CF440
:100C7000B30180E290E00E947A08F6CFB3010E94AF
:100C80007A081EAA1DAA14C099AD953249F481E0D4
:100C900090E09EAB8DAB5524452CEAE0EAAF08C04E
:100CA000B301F9AD8F2F992787FD90950E947A089F
:100CB000F301838183FF04C0EFA9F8ADF49103C071
:100CC000EFA9F8ADF081F9AF29AD222309F0D5CB1A
:100CD000F30186819781EE960FB6F894DEBF0FBEC2
:100CE000CDBFDF91CF911F910F91FF90EF90DF90DB
:100CF000CF90BF90AF909F908F907F906F905F90BC
:100D00004F903F902F900895C0EED0E1DEBFCDBF51
:100D10008EE0DE011696E0E0F1E001900D928A95FA
:100D2000E1F7CE01069690933F0180933E019093A8
:100D30003B0180933A0190933D0180933C018FE504
:100D400090E00E94EF0784E090E09F938F9383E010
:100D500090E09F938F938EE091E09F938F9387E134
:100D600091E09F938F938CE890E09F938F930E94E4
:100D7000BC088DB79EB70A960FB6F8949EBF0FBEFB
:100D80008DBF0E94C107109261001092620090EE28
:100D9000809127008923809327008091260080641A
:100DA0008093260080912600992780749070009788
:100DB00009F0F8CF80912400282F33278091250057
:100DC0009927982F8827822B932B9A838983809148
:100DD000270080618093270080E090E0A0E8BFE3D7
:100DE0008C8B9D8BAE8BBF8B26E636E646E655E4B4
:100DF0006C897D898E899F890E948C09DC01CB01D9
:100E00008A8F9B8FAC8FBD8F20E030E040E85FE39E
:100E10006A8D7B8D8C8D9D8D0E94FC0888230CF043
:100E200005C081E090E0998F888F1AC020E03FEFE5
:100E30004FE757E46A8D7B8D8C8D9D8D0E94FF0856
:100E400018160CF003C0198E188E0AC06A8D7B8D9F
:100E50008C8D9D8D0E94E108DC01CB01998F888FDC
:100E6000888D998D9F8F8E8F8E8D9F8D0197F1F735
:100E70009F8F8E8F809126008064809326008091C2
:100E80002600992780749070009709F0F8CF809120
:100E90002400282F3327809125009927982F882711
:100EA000822B932B9C838B838B819C819F938F932D
:100EB00089819A819F938F9383E291E09F938F938F
:100EC0000E94A7088DB79EB706960FB6F8949EBFEE
:100ED0000FBE8DBF1D828D818A3008F058CF80E013
:100EE00090E0A0E2B1E48A8F9B8FAC8FBD8F26E6A5
:100EF00036E646E655E46A8D7B8D8C8D9D8D0E948D
:100F00008C09DC01CB018C8B9D8BAE8BBF8B20E0E1
:100F100030E040E85FE36C897D898E899F890E947B
:100F2000FC0888230CF005C081E090E09F8F8E8F35
:100F30001AC020E03FEF4FE757E46C897D898E8926
:100F40009F890E94FF0818160CF003C01F8E1E8E8A
:100F50000AC06C897D898E899F890E94E108DC0125
:100F6000CB019F8F8E8F8E8D9F8D998F888F888DCF
:100F7000998D0197F1F7998F888F8D818F5F8D8380
:100F8000AACFCF93DF93CDB7DEB7809126008068DC
:100F900080932600809126008F7D8093260098EF15
:100FA0008091260089238760809326008091270006
:100FB0008F73806480932700809127008F7D8093BA
:100FC000270090EE8091270089238093270080914D
:100FD0002700806180932700DF91CF910895CF9300
:100FE000DF93CDB7DEB722970FB6F894DEBF0FBE02
:100FF000CDBF9A83898389819A81892F992780938C
:10100000900089818093290088E180932A008EE0F6
:101010008093950022960FB6F894DEBF0FBECDBF29
:10102000DF91CF910895CF93DF93CDB7DEB72397AC
:101030000FB6F894DEBF0FBECDBF89837B836A8372
:1010400089818A3029F46A817B818DE00E941308AE
:1010500080912B00992780729070009709F4F8CF47
:10106000898180932C0080E090E023960FB6F8945D
:10107000DEBF0FBECDBFDF91CF910895CF93DF9339
:10108000CDB7DEB722970FB6F894DEBF0FBECDBF47
:101090009A83898380912B0088230CF0FBCF809169
:1010A0002C00992722960FB6F894DEBF0FBECDBF55
:1010B000DF91CF910895FC0105900020E9F780951C
:1010C00090958E0F9F1F0895FC0105906150704010
:1010D0000110D8F7809590958E0F9F1F0895FC0101
:1010E0006150704001900110D8F7809590958E0F57
:1010F0009F1F08950F931F93CF93DF938C01EB01F4
:101100008B81992781FF1CC082FF0DC02E813F81FA
:101110008C819D812817390764F4E881F981019356
:10112000F983E88306C0E885F985802F0995892B26
:1011300039F48E819F8101969F838E83C80102C0FE
:101140008FEF9FEFDF91CF911F910F910895CF9374
:10115000DF93CDB7DEB7E5E0F0E0EC0FFD1F819146
:101160009191AF01BC0180913C0190913D010E94A1
:101170001102DF91CF910895CF93DF93CDB7DEB702
:1011800045E050E04C0F5D1FFA0121913191AF0114
:10119000A0913C01B0913D01FD0183818860838372
:1011A000B90180913C0190913D010E941102E091B2
:1011B0003C01F0913D012381277F2383DF91CF9173
:1011C000089597FB47D09F3738F0FEE9F91B982F19
:1011D000872F762F6B2F05C05AC0969587957795E8
:1011E0006795F150D0F73EF4909580957095619594
:1011F0007F4F8F4F9F4F08950ED05EF004C00BD0ED
:1012000026F001C008D019F020F48FEF089580E097
:10121000089581E0089597FB092E052600F868944B
:1012200010D0E89407FC07C062177307840795077E
:1012300021F008F40094079498940895052E092647
:1012400007FA440F551F5F3F79F0AA27A51708F04A
:1012500051E04795880F991F9F3F31F0BB27B91781
:1012600008F091E0879508959F919F91112408C1FE
:1012700097FB880F991F9F3F31F0BB27B91708F0E4
:1012800091E0879508959F919F911124F9C0662759
:1012900077278827992708959F3F59F4803C49F480
:1012A00081E0992708959068892387238623839571
:1012B000B9F3882799270895DBDFCF93DF93D52FE4
:1012C000C42F55274427332722279923D9F09F3746
:1012D000C8F0F92FBDD0592F482F372F262FF639B8
:1012E00068F46FDFA6D0C030CD0721F06993799301
:1012F000899399939058DF91CF9157C09927882768
:1013000077276627C030CD0721F029933993499379
:101310005993DF91CF919CC091DF01D099C099235F
:1013200039F0552329F09F575F57950F13F49AF121
:10133000B1CF91589F3FE1F3629FA12D0F92BB2740
:10134000639FA00DB11DEE27729FA00DB11DEE1F72
:10135000AF93AA27649FB00DE11D739FB00DE11DEF
:10136000AA1F6627829FB00DE11DA61F5527749FF7
:10137000E00DA11D551F839FE00DA11D561F849FE9
:10138000A00D511D852F7A2F6E2F1F900F9088234F
:101390001AF4939539F474C0000C111CBB1F661F1E
:1013A000771F881F012808955058192E47DF01D054
:1013B0004FC0BA176207730784079507B1F188F425
:1013C0000EF410940B2EBA2FA02D062E622F202D76
:1013D000072E732F302D082E842F402D092E952F88
:1013E000502DFF275523B9F0591B49F0573E98F06F
:1013F000469537952795A795F0405395C9F776F010
:10140000BA0F621F731F841F30F487957795679515
:10141000B795F040939517FA0F2E0895BF1BBB2781
:10142000BA0B620B730B840BF6CFDEF633CFE89466
:1014300003C097FB0EF4D8DEB62F672F782F892FC5
:101440009EE9002405C09A95BB0F661F771F881F71
:1014500011249923A1F08823B2F79F3F59F0BB0FC5
:1014600048F421F4002011F460FF04C06F5F7F4F47
:101470008F4F9F4F881F9795879597F9089507CFAE
:101480009FEF80EC089597FB092E07260AD077FD81
:1014900004D02ED006D000201AF4709561957F4FAD
:1014A0000895F6F7909581959F4F0895A1E21A2E21
:1014B000AA1BBB1BFD010DC0AA1FBB1FEE1FFF1FF8
:1014C000A217B307E407F50720F0A21BB30BE40B48
:1014D000F50B661F771F881F991F1A9469F760958F
:1014E0007095809590959B01AC01BD01CF01089549
:1014F000AA1BBB1B51E107C0AA1FBB1FA617B7073A
:1015000010F0A61BB70B881F991F5A95A9F7809555
:081510009095BC01CD01089586
:10151800000000030000000013083E0800003031FE
:101528003A33393A3234004A616E2020352032305D
:10153800303700436830203D2025642C207C204330
:0A1548006831203D202564200A00D0
:00000001FF
