:020000040000FA
:020000000928CD
:040002000034003492
:080008008316FF308500072874
:1000100009008316FF23900083120730990083168E
:1000200000309F0000309F00831264008316C030B0
:10003000850083120030850083168C170B178B17F1
:1000400083128C13831610309B001C141A08831221
:10005000013AA4008316B1001030B000831632209C
:100060008312312831089A0030089B008C131C152C
:100070008B1355309D00AA309D009C148B170800EF
:08400000050005000A000A009A
:02400E00D43F9D
:00000001FF
