:100000000C9446000C945D000C945D000C945D0013
:100010000C945D000C945D000C945D000C945D00EC
:100020000C945D000C945D000C945D000C945D00DC
:100030000C945D000C945D000C945D000C945D00CC
:100040000C945D000C945D000C945D000C945D00BC
:100050000C945D000C945D000C945D000C945D00AC
:100060000C945D000C945D000C945D000C945D009C
:100070000C945D000C945D000C945D000C945D008C
:100080000C945D000C945D000C945D0011241FBE67
:10009000CFEFD0E1DEBFCDBF11E0A0E0B1E0E8E5F9
:1000A000FAE100E00BBF02C007900D92A631B10744
:1000B000D9F70E9444010C942A0D0C940000DF93A0
:1000C000CF93CDB7DEB76B970FB6F894DEBF0FBEF8
:1000D000CDBF8B8F1A8ECAC0198EC1C080E090E050
:1000E000A8ECB2E48D8B9E8BAF8BB88F6D897E8927
:1000F0008F89988D22E539E44DE950E40E94C308C8
:10010000DC01CB01898B9A8BAB8BBC8B69897A899B
:100110008B899C8920E030E040E85FE30E94C90AB7
:1001200088231CF481E0888B91C069897A898B8946
:100130009C8920E030E04FE753E40E94690A1816DA
:100140000CF07BC06D897E898F89988D20E030E02E
:100150004AE754E40E94BD09DC01CB018C879D87EE
:10016000AE87BF876C857D858E859F8526E636E6C2
:1001700046E655E40E94C308DC01CB0188879987D5
:10018000AA87BB87688579858A859B8520E030E0D2
:1001900040E85FE30E94C90A88232CF481E090E0E4
:1001A0009F838E833FC0688579858A859B8520E003
:1001B0003FEF4FE757E40E94690A18164CF56C852B
:1001C0007D858E859F8520E030E040E251E40E94ED
:1001D000C308DC01CB01BC01CD010E94ED06DC01AE
:1001E000CB019F838E830FC080E791E09D838C833A
:1001F0008C819D810197F1F79D838C838E819F81F6
:1002000001979F838E838E819F81009769F724C019
:10021000688579858A859B850E94ED06DC01CB0186
:100220009F838E838E819F819B838A838A819B811A
:100230000197F1F79B838A830FC069897A898B893B
:100240009C890E94ED06DC01CB01888B888989831B
:1002500089818A95F1F78983898D8F5F898F898D4F
:100260008A3008F43BCF8A8D8F5F8A8F9A8D8B8D71
:10027000981708F431CF6B960FB6F894DEBF0FBE17
:10028000CDBFCF91DF910895DF93CF93CDB7DEB788
:100290000E94560180E091E00E94890184E60E945C
:1002A0005F008CE160E00E941B02F8CFDF93CF93E8
:1002B000CDB7DEB7A1E3B0E0E1E3F0E0808180629A
:1002C0008C93A1E3B0E0E1E3F0E0808180688C935F
:1002D000A1E3B0E0E1E3F0E0808180648C93A1E3EE
:1002E000B0E0E1E3F0E0808182608C930E94E20262
:1002F000CF91DF910895DF93CF930F92CDB7DEB703
:100300008983898161E00E941B020F90CF91DF9168
:100310000895DF93CF9300D0CDB7DEB79A8389835A
:100320000BC0E981FA81208189819A8101969A83A3
:100330008983822F0E947B01E981FA818081882351
:1003400081F70F900F90CF91DF910895DF93CF93B6
:1003500000D00F92CDB7DEB78A8388E08983A1E30E
:10036000B0E0E1E3F0E0808182608C93A1E3B0E053
:10037000E1E3F0E0808180688C93A1E3B0E0E1E309
:10038000F0E0808180648C93A2E3B0E0E2E3F0E0EF
:1003900080818D7F8C93A2E3B0E0E2E3F0E0808186
:1003A0008F778C932EC08A81282F30E08981882F07
:1003B00090E0A90102C0559547958A95E2F7CA01D8
:1003C00081709070882341F0A2E3B0E0E2E3F0E0B6
:1003D000808180648C9307C0A2E3B0E0E2E3F0E0A8
:1003E00080818F7B8C93A2E3B0E0E2E3F0E0808138
:1003F00080688C93A2E3B0E0E2E3F0E080818F7745
:100400008C9359815B838B81882311F041E04B836E
:100410008B81998191509983882329F6A2E3B0E0DA
:10042000E2E3F0E0808182608C930F900F900F9058
:10043000CF91DF910895DF93CF93CDB7DEB760976B
:100440000FB6F894DEBF0FBECDBF8F87688B88894B
:10045000882319F18F85807F87600E94A6018F8590
:10046000807F81600E94A6018F85882F90E0829511
:100470009295907F9827807F982787600E94A60199
:100480008F85882F90E082959295907F9827807F26
:10049000982781600E94A6011AC08F85807F8660A0
:1004A0000E94A6018F85807F0E94A6018F85882FDC
:1004B00090E082959295907F9827807F982786601C
:1004C0000E94A6018F858295807F0E94A60180E010
:1004D00090E0A0E0B0E48B879C87AD87BE876B85FA
:1004E0007C858D859E8526E636E646E655E40E94A7
:1004F000C308DC01CB018F839887A987BA876F81F6
:10050000788589859A8520E030E040E85FE30E94A5
:10051000C90A88232CF481E090E09E838D833FC03C
:100520006F81788589859A8520E03FEF4FE757E412
:100530000E94690A18164CF56B857C858D859E8511
:1005400020E030E040E251E40E94C308DC01CB012E
:10055000BC01CD010E94ED06DC01CB019E838D83A1
:100560000FC080E791E09C838B838B819C810197F6
:10057000F1F79C838B838D819E8101979E838D8370
:100580008D819E81009769F714C06F817885898578
:100590009A850E94ED06DC01CB019E838D838D81BF
:1005A0009E819A83898389819A810197F1F79A8341
:1005B000898360960FB6F894DEBF0FBECDBFCF9192
:1005C000DF9108950F931F93DF93CF93CDB7DEB7DD
:1005D000C456D0400FB6F894DEBF0FBECDBFFE01AB
:1005E000EF59FF4F80E090E0A0EFB1E4808391836A
:1005F000A283B3838E01035A1F4FFE01EF59FF4FB1
:10060000608171818281938126E636E646E655E473
:100610000E94C308DC01CB01F80180839183A2838F
:10062000B383FE01E35AFF4F608171818281938120
:1006300020E030E040E85FE30E94C90A882344F4E8
:10064000FE01E55AFF4F81E090E09183808364C012
:10065000FE01E35AFF4F608171818281938120E026
:100660003FEF4FE757E40E94690A18160CF043C0A9
:10067000FE01EF59FF4F608171818281938120E0FB
:1006800030E040E251E40E94C308DC01CB018E015E
:10069000055A1F4FBC01CD010E94ED06DC01CB01C4
:1006A000F801918380831FC0FE01E75AFF4F80E766
:1006B00091E091838083FE01E75AFF4F8081918111
:1006C0000197F1F7FE01E75AFF4F91838083DE0126
:1006D000A55ABF4FFE01E55AFF4F808191810197D6
:1006E00011969C938E93FE01E55AFF4F8081918174
:1006F0000097D1F627C08E01055A1F4FFE01E35A1D
:10070000FF4F60817181828193810E94ED06DC013F
:10071000CB01F80191838083DE01A95ABF4FFE010E
:10072000E55AFF4F808191818D939C93FE01E95A98
:10073000FF4F808191810197F1F7FE01E95AFF4F48
:100740009183808380E00E94A60186E30E94A60137
:1007500080E30E94A601FE01ED5AFF4F80E090E089
:10076000A0EAB0E480839183A283B3838E01015B0E
:100770001F4FFE01ED5AFF4F60817181828193818D
:1007800026E636E646E655E40E94C308DC01CB01C6
:10079000F80180839183A283B383FE01E15BFF4F65
:1007A000608171818281938120E030E040E85FE3E5
:1007B0000E94C90A882344F4FE01E35BFF4F81E0F5
:1007C00090E09183808364C0FE01E15BFF4F608114
:1007D00071818281938120E03FEF4FE757E40E94CF
:1007E000690A18160CF043C0FE01ED5AFF4F6081F4
:1007F00071818281938120E030E040E251E40E94E7
:10080000C308DC01CB018E01035B1F4FBC01CD018E
:100810000E94ED06DC01CB01F801918380831FC0AB
:10082000FE01E55BFF4F80E791E091838083FE014D
:10083000E55BFF4F808191810197F1F7FE01E55B58
:10084000FF4F91838083DE01A35BBF4FFE01E35B1B
:10085000FF4F80819181019711969C938E93FE01A9
:10086000E35BFF4F808191810097D1F627C08E0115
:10087000035B1F4FFE01E15BFF4F6081718182814D
:1008800093810E94ED06DC01CB01F8019183808306
:10089000DE01A75BBF4FFE01E35BFF4F80819181CB
:1008A0008D939C93FE01E75BFF4F808191810197BF
:1008B000F1F7FE01E75BFF4F9183808386E30E949F
:1008C000A60180E30E94A601FE01EB5BFF4F80E0E2
:1008D00090E0A8ECB2E480839183A283B3838E017D
:1008E0000F5B1F4FFE01EB5BFF4F608171818281C7
:1008F000938122E539E44DE950E40E94C308DC010C
:10090000CB01F80180839183A283B383FE01EF5B67
:10091000FF4F608171818281938120E030E040E867
:100920005FE30E94C90A882334F481E0FE01E05CA1
:10093000FF4F80839DC0FE01EF5BFF4F608171819F
:100940008281938120E030E04FE753E40E94690AFE
:1009500018160CF07EC0FE01EB5BFF4F60817181C9
:100960008281938120E030E04AE754E40E94BD098F
:10097000DC01CB018CAF9DAFAEAFBFAF6CAD7DAD39
:100980008EAD9FAD26E636E646E655E40E94C308E6
:10099000DC01CB0188AF99AFAAAFBBAF68AD79AD31
:1009A0008AAD9BAD20E030E040E85FE30E94C90AD9
:1009B00088232CF481E090E09FAB8EAB3FC068AD04
:1009C00079AD8AAD9BAD20E03FEF4FE757E40E9441
:1009D000690A18164CF56CAD7DAD8EAD9FAD20E06B
:1009E00030E040E251E40E94C308DC01CB01BC01CD
:1009F000CD010E94ED06DC01CB019FAB8EAB0FC099
:100A000080E791E09DAB8CAB8CA99DA90197F1F794
:100A10009DAB8CAB8EA99FA901979FAB8EAB8EA986
:100A20009FA9009769F72DC068AD79AD8AAD9BADE0
:100A30000E94ED06DC01CB019FAB8EAB8EA99FA976
:100A40009BAB8AAB8AA99BA90197F1F79BAB8AABB9
:100A500018C0FE01EF5BFF4F60817181828193813D
:100A60000E94ED06DC01CB01FE01E05CFF4F8083BC
:100A7000FE01E05CFF4F808189AB89A98A95F1F77F
:100A800089AB86E30E94A60180E30E94A60180E074
:100A900090E0A8ECB2E48DA79EA7AFA7B8AB6DA578
:100AA0007EA58FA598A922E539E44DE950E40E947E
:100AB000C308DC01CB0189A79AA7ABA7BCA769A58E
:100AC0007AA58BA59CA520E030E040E85FE30E947A
:100AD000C90A88231CF481E088A791C069A57AA57A
:100AE0008BA59CA520E030E04FE753E40E94690A03
:100AF00018160CF07BC06DA57EA58FA598A920E0E7
:100B000030E04AE754E40E94BD09DC01CB018CA32C
:100B10009DA3AEA3BFA36CA17DA18EA19FA126E63C
:100B200036E646E655E40E94C308DC01CB0188A303
:100B300099A3AAA3BBA368A179A18AA19BA120E044
:100B400030E040E85FE30E94C90A88232CF481E08A
:100B500090E09F8F8E8F3FC068A179A18AA19BA151
:100B600020E03FEF4FE757E40E94690A18164CF562
:100B70006CA17DA18EA19FA120E030E040E251E474
:100B80000E94C308DC01CB01BC01CD010E94ED062F
:100B9000DC01CB019F8F8E8F0FC080E791E09D8F8E
:100BA0008C8F8C8D9D8D0197F1F79D8F8C8F8E8D05
:100BB0009F8D01979F8F8E8F8E8D9F8D009769F7E8
:100BC00024C068A179A18AA19BA10E94ED06DC0145
:100BD000CB019F8F8E8F8E8D9F8D9B8F8A8F8A8D5D
:100BE0009B8D0197F1F79B8F8A8F0FC069A57AA51E
:100BF0008BA59CA50E94ED06DC01CB0188A788A5EA
:100C0000898F898D8A95F1F7898F86E20E94A601E6
:100C100080E20E94A60180E090E0A8ECB2E48D8B17
:100C20009E8BAF8BB88F6D897E898F89988D22E5D9
:100C300039E44DE950E40E94C308DC01CB01898B03
:100C40009A8BAB8BBC8B69897A898B899C8920E0D4
:100C500030E040E85FE30E94C90A88231CF481E089
:100C6000888B91C069897A898B899C8920E030E0E2
:100C70004FE753E40E94690A18160CF07BC06D8997
:100C80007E898F89988D20E030E04AE754E40E9405
:100C9000BD09DC01CB018C879D87AE87BF876C8542
:100CA0007D858E859F8526E636E646E655E40E94DC
:100CB000C308DC01CB0188879987AA87BB87688531
:100CC00079858A859B8520E030E040E85FE30E94DB
:100CD000C90A88232CF481E090E09F838E833FC073
:100CE000688579858A859B8520E03FEF4FE757E44B
:100CF0000E94690A18164CF56C857D858E859F8546
:100D000020E030E040E251E40E94C308DC01CB0166
:100D1000BC01CD010E94ED06DC01CB019F838E83D7
:100D20000FC080E791E09D838C838C819D8101972A
:100D3000F1F79D838C838E819F8101979F838E83A2
:100D40008E819F81009769F724C0688579858A859F
:100D50009B850E94ED06DC01CB019F838E838E81F3
:100D60009F819B838A838A819B810197F1F79B8373
:100D70008A830FC069897A898B899C890E94ED06D4
:100D8000DC01CB01888B8889898389818A95F1F779
:100D9000898388E260E00E941B0288E060E00E9494
:100DA0001B0281E060E00E941B0286E060E00E947E
:100DB0001B028CE060E00E941B028EE060E00E945B
:100DC0001B02CC59DF4F0FB6F894DEBF0FBECDBF6C
:100DD000CF91DF911F910F910895EF92FF920F93A2
:100DE0001F937B018C0120E030E040E05FE40E9433
:100DF000990A88238CF0C801B70120E030E040E078
:100E00005FE40E9465080E94F90A9B01AC01205032
:100E100030404040504806C0C801B7010E94F90A5E
:100E20009B01AC01B901CA011F910F91FF90EF9096
:100E30000895A0E0B0E0EFE1F7E00C94F30CDC01E2
:100E40002B01FA019C91923008F439C1EB018881A1
:100E5000823008F433C1943069F4843009F02FC132
:100E600011969C9111978981981709F428C1AEE0D9
:100E7000B1E025C1843009F421C18230A9F4923057
:100E800009F01DC19A01AD0188E0EA010990AE01A7
:100E9000E90109929E018150C1F7E2018981119611
:100EA0009C918923818308C1923009F407C112966D
:100EB0002D903C901397EB018A819B811496AD9005
:100EC000BD90CD90DC901797EC80FD800E811F8146
:100ED0009101281B390BB90137FF04C0662777271A
:100EE000621B730B603271050CF061C012161306A1
:100EF0006CF537014801062E04C0969487947794C8
:100F000067940A94D2F721E030E040E050E004C05A
:100F1000220F331F441F551F6A95D2F721503040CE
:100F2000404050402E213F214023512321153105BF
:100F30004105510521F021E030E040E050E0790129
:100F40008A01E628F728082919293CC0232BD1F16A
:100F5000260E371E35014601062E04C0969487944E
:100F6000779467940A94D2F721E030E040E050E0B3
:100F700004C0220F331F441F551F6A95D2F721501A
:100F80003040404050402A213B214C215D21211519
:100F900031054105510521F021E030E040E050E00D
:100FA00059016A01A628B728C828D9280BC082157C
:100FB00093052CF01C01AA24BB24650103C0EE2478
:100FC000FF24870111969C91D20111968C9198175C
:100FD00009F445C0992339F0A80197012A193B0962
:100FE0004C095D0906C0A60195012E193F09400B69
:100FF000510B57FD08C0118233822282248335832E
:10100000468357831DC081E08183338222828827F3
:101010009927DC01821B930BA40BB50B848395836A
:10102000A683B7830DC0220F331F441F551F24838F
:10103000358346835783828193810197938382838B
:101040002481358146815781DA01C9010197A109BF
:10105000B1098F5F9F4FAF4FBF4328F30BC0918300
:1010600033822282EA0CFB1C0C1D1D1DE482F582DA
:101070000683178383E080832481358146815781ED
:1010800057FF1AC0C901AA2797FDA095BA2F8170F2
:101090009070A070B0705695479537952795822B24
:1010A000932BA42BB52B84839583A683B78382814E
:1010B0009381019693838283DF0101C0D201CD0128
:1010C000CDB7DEB7E2E10C940F0DA0E2B0E0EBE6A5
:1010D000F8E00C94FF0C69837A838B839C832D83C7
:1010E0003E834F835887E9E0EE2EF12CEC0EFD1E77
:1010F000CE010196B7010E94220C8E010F5E1F4F98
:10110000CE010596B8010E94220C8A8991E08927B8
:101110008A8BC701B801AE01475E5F4F0E94190775
:101120000E944D0BA096E6E00C941B0DA0E2B0E0EF
:10113000ECE9F8E00C94FF0C69837A838B839C8341
:101140002D833E834F835887F9E0EF2EF12CEC0E70
:10115000FD1ECE010196B7010E94220C8E010F5E8A
:101160001F4FCE010596B8010E94220CC701B8019D
:10117000AE01475E5F4F0E9419070E944D0BA0967B
:10118000E6E00C941B0DA0E2B0E0E9ECF8E00C9472
:10119000F30C69837A838B839C832D833E834F83F7
:1011A0005887CE010196BE01675F7F4F0E94220CD7
:1011B000CE010596BE016F5E7F4F0E94220C99857D
:1011C000923088F089898230C8F0943019F48230E6
:1011D00051F404C0843029F4923081F48EE091E01F
:1011E000C6C0923049F420E09A858A89981321E09C
:1011F0002A87CE010996BBC0823049F420E09A8547
:101200008A89981321E02A8BCE014196B0C02D84A3
:101210003E844F8458886D887E888F88988CEE2411
:10122000FF248701AA24BB24650140E050E060E070
:1012300070E0E0E0F0E0C10181709070892BE9F08E
:10124000E60CF71C081D191D9A01AB012A0D3B1D68
:101250004C1D5D1D80E090E0A0E0B0E0E614F704D6
:101260000805190520F481E090E0A0E0B0E0BA01A3
:10127000A901480F591F6A1F7B1FAA0CBB1CCC1C5D
:10128000DD1C97FE08C081E090E0A0E0B0E0A82A55
:10129000B92ACA2ADB2A3196E032F10549F0660CF8
:1012A000771C881C991C5694479437942794C3CF75
:1012B000FA85EA892B893C898B859C85280F391F03
:1012C0002E5F3F4F17C0CA0181709070892B61F06B
:1012D00016950795F794E79480E090E0A0E0B0E8D9
:1012E000E82AF92A0A2B1B2B76956795579547957F
:1012F0002F5F3F4F77FDE7CF0CC0440F551F661F90
:10130000771F17FD4160EE0CFF1C001F111F2150BD
:101310003040403090E0590790E0690790E4790749
:1013200060F32B8F3C8FDB01CA018F779070A07028
:10133000B07080349105A105B10561F447FD0AC084
:10134000E114F1040105110529F0405C5F4F6F4F76
:101350007F4F40781A8EFE1711F081E08A8F4D8FF3
:101360005E8F6F8F78A383E0898FCE0149960E94AC
:101370004D0BA096E2E10C940F0DA8E1B0E0E3EC78
:10138000F9E00C94FB0C69837A838B839C832D8317
:101390003E834F835887B9E0EB2EF12CEC0EFD1EF7
:1013A000CE010196B7010E94220C8E010F5E1F4FE5
:1013B000CE010596B8010E94220C2985223008F43E
:1013C0007EC03989323010F4B8017CC08A859A8990
:1013D00089278A87243011F0223031F4231709F04D
:1013E0006EC06EE071E06EC0343039F41D861E862A
:1013F0001F86188A1C861B8604C0323021F484E0C4
:101400008987B7015FC02B853C858B899C89281B08
:10141000390B3C872B87ED84FE840F851889AD88B6
:10142000BE88CF88D88CEA14FB040C051D0540F457
:10143000EE0CFF1C001F111F215030403C872B87F2
:1014400020E030E040E050E080E090E0A0E0B0E458
:1014500060E070E0EA14FB040C051D0540F0282B49
:10146000392B4A2B5B2BEA18FB080C091D09B69592
:10147000A79597958795EE0CFF1C001F111F6F5FB6
:101480007F4F6F31710531F7DA01C9018F779070A5
:10149000A070B07080349105A105B10561F427FDFD
:1014A0000AC0E114F1040105110529F0205C3F4F49
:1014B0004F4F5F4F20782D873E874F87588BBE0157
:1014C000675F7F4FCB010E944D0B6896EAE00C945A
:1014D000170DA8E1B0E0EFE6FAE00C94FF0C698389
:1014E0007A838B839C832D833E834F83588789E047
:1014F000E82EF12CEC0EFD1ECE010196B7010E94E4
:10150000220C8E010F5E1F4FCE010596B8010E947E
:10151000220C8985823040F08989823028F0C70109
:10152000B8010E949A0C01C08FEF6896E6E00C9417
:101530001B0DA8E1B0E0EFE9FAE00C94FF0C698321
:101540007A838B839C832D833E834F83588789E0E6
:10155000E82EF12CEC0EFD1ECE010196B7010E9483
:10156000220C8E010F5E1F4FCE010596B8010E941E
:10157000220C8985823040F08989823028F0C701A9
:10158000B8010E949A0C01C08FEF6896E6E00C94B7
:101590001B0DA8E1B0E0EFECFAE00C94FF0C6983BE
:1015A0007A838B839C832D833E834F83588789E086
:1015B000E82EF12CEC0EFD1ECE010196B7010E9423
:1015C000220C8E010F5E1F4FCE010596B8010E94BE
:1015D000220C8985823040F08989823028F0C70149
:1015E000B8010E949A0C01C081E06896E6E00C9474
:1015F0001B0DACE0B0E0EFEFFAE00C94030D698353
:101600007A838B839C83CE010196BE016B5F7F4FF3
:101610000E94220C8D81823061F1823050F1843041
:1016200021F48E81882351F12EC02F81388537FD1A
:1016300020C06E812F3131051CF06623F9F023C0E4
:101640008EE190E0821B930B29853A854B855C8562
:1016500004C056954795379527958A95D2F7662306
:10166000B1F050954095309521953F4F4F4F5F4FCA
:101670000EC020E030E040E050E009C02FEF3FEF27
:101680004FEF5FE704C020E030E040E050E8B901F0
:10169000CA012C96E2E00C941F0DDF92EF92FF92AC
:1016A0000F931F93FC01E480F58006811781D180A0
:1016B0008081823048F480E090E0A0E1B0E0E82A48
:1016C000F92A0A2B1B2BA5C0843009F49FC0823055
:1016D00021F4EE24FF24870105C0E114F104010583
:1016E000110519F4E0E0F0E096C0628173819FEF8C
:1016F000623879070CF05BC022E83FEF261B370BFE
:101700002A3131052CF020E030E040E050E02AC0E2
:10171000B801A701022E04C07695679557954795A5
:101720000A94D2F781E090E0A0E0B0E004C0880F16
:10173000991FAA1FBB1F2A95D2F70197A109B109CA
:101740008E219F21A023B1230097A105B10521F08F
:1017500081E090E0A0E0B0E09A01AB01282B392BAA
:101760004A2B5B2BDA01C9018F779070A070B070A3
:1017700080349105A105B10539F427FF09C0205C2B
:101780003F4F4F4F5F4F04C0215C3F4F4F4F5F4F64
:10179000E0E0F0E02030A0E03A07A0E04A07A0E453
:1017A0005A0710F0E1E0F0E079018A0127C06038C3
:1017B000710564F5FB01E158FF4FD801C7018F7730
:1017C0009070A070B07080349105A105B10539F416
:1017D000E7FE0DC080E490E0A0E0B0E004C08FE33D
:1017E00090E0A0E0B0E0E80EF91E0A1F1B1F17FFF3
:1017F00005C016950795F794E794319687E01695FE
:101800000795F794E7948A95D1F705C0EE24FF2455
:101810008701EFEFF0E06E2F679566276795902FB1
:101820009F77D794DD24D7948E2F8695492F462B0A
:10183000582F5D29B701CA011F910F91FF90EF90BA
:10184000DF900895FC01DB01408151812281622FEC
:101850006F7770E0221F2227221F9381892F880F24
:10186000822B282F30E0991F9927991F11969C935E
:10187000119721153105A9F541155105610571052E
:1018800011F482E037C082E89FEF13969C938E9309
:1018900012979A01AB0167E0220F331F441F551FB7
:1018A0006A95D1F783E08C930DC0220F331F441F3C
:1018B000551F12968D919C911397019713969C93A7
:1018C0008E931297203080E0380780E0480780E44C
:1018D000580758F314962D933D934D935C931797A7
:1018E00008952F3F310579F44115510561057105C2
:1018F00019F484E08C93089564FF03C081E08C9315
:1019000012C01C9210C02F57304013963C932E9358
:10191000129783E08C9387E0440F551F661F771F53
:101920008A95D1F7706414964D935D936D937C9373
:10193000179708951F93DC01FB019C91923008F4E6
:1019400047C08081823008F443C0943051F411962E
:101950001C91843099F58181682F70E0611B7109B9
:101960003FC0843021F0923031F48230B9F181816E
:10197000882389F12DC011961C9111978230F1F0C6
:1019800081811817D9F412962D913C911397828179
:1019900093818217930794F028173907BCF01496A7
:1019A0008D919D910D90BC91A02D24813581468112
:1019B0005781281739074A075B0718F4112341F0AC
:1019C0000AC082179307A407B50740F4112319F042
:1019D00061E070E005C06FEF7FEF02C060E070E093
:1019E000CB011F9108952F923F924F925F926F9279
:1019F0007F928F929F92AF92BF92CF92DF92EF929F
:101A0000FF920F931F93CF93DF93CDB7DEB7CA1B1F
:101A1000DB0B0FB6F894DEBF0FBECDBF09942A884A
:101A2000398848885F846E847D848C849B84AA84F2
:101A3000B984C884DF80EE80FD800C811B81AA817F
:101A4000B981CE0FD11D0FB6F894DEBF0FBECDBF4A
:081A5000ED010895F894FFCFA9
:101A580048656C6C6F20776F726C64212100000000
:061A680000000000000078
:00000001FF
