:100000000C9446000C945D000C945D000C945D0013
:100010000C945D000C945D000C945D000C945D00EC
:100020000C945D000C945D000C945D000C945D00DC
:100030000C945D000C945D000C945D000C945D00CC
:100040000C945D000C945D000C945D000C945D00BC
:100050000C945D000C945D000C945D000C945D00AC
:100060000C945D000C945D000C945D000C945D009C
:100070000C945D000C945D000C945D000C945D008C
:100080000C945D000C945D000C945D0011241FBE67
:10009000CFEFD0E1DEBFCDBF11E0A0E0B1E0E6EFF1
:1000A000F0E000E00BBF02C007900D92A030B10756
:1000B000D9F70E945F000C9479000C940000DF9344
:1000C000CF93CDB7DEB7E8E3F0E08FEF8083E2E3D4
:1000D000F0E08FEF8083E1E3F0E08FEF8083E7E3F0
:1000E000F0E01082E2E3F0E0A6E3B0E08C918083E0
:0600F000F9CFF894FFCFE8
:00000001FF
