:100000001028812887288728FE00030EF5000408A1
:10001000F6000A08F700831203137F08F800A02AED
:100020001A2B8316031385019F010000831203130B
:100030008501B8010000FF308316031386000530E8
:100040003321831603130F178F160F1627280F1D42
:100050002A282B2827282C28023033218121003000
:10006000422283120313CF004F08C50000307522CF
:1000700083120313CF004F08C6000F3042228312B1
:100080000313CF004F08C1000F30752283120313F2
:10009000CF004F08C2001E30422283120313CF004C
:1000A0004F08BF001E30752283120313CF004F0884
:1000B000C0002D30422283120313CF004F08B90035
:1000C0002D30752283120313CF004F08BA000C1095
:1000D000831603130C1083120313900110140B11D9
:1000E0008B1283160313811283120313BB018B152A
:1000F0000B178B170800023006238312031310100E
:10010000C6288F018E01C4010C101014D1280C1CBC
:100110008A288B288F280130F2007208C4070F0844
:10012000F20001300310F20DFF3E031D92280E086D
:10013000F30007300310F30CFF3E031D9A287308E9
:100140007204F4007408BE004408F2000130031089
:10015000F20DFF3E031DA7280F08F3000730031020
:10016000F30CFF3E031DAF2873087204F4007408FB
:10017000BD00BC018E018F01C4010C1010143E03A0
:10018000FF3A8100C3010B11D128D1283B0884001C
:10019000033004020318D12800308A00013004071C
:1001A00082003B08023A0319D628D728DC28013000
:1001B000F2007208BB07DC2802301023DF28080099
:1001C0008B138130831203133C02031CE828E928B7
:1001D000EB283029302980303C020318F028F12820
:1001E000F3280B22F328831203133C08803A031DE3
:1001F000FA28FB28FE2800303321FE28831203133F
:10020000BC08031D042905290829103033210829B9
:10021000831203133C08203A031D0F2910291329C8
:10022000203033211329831203133C08403A031D65
:100230001A291B291E29403033211E29831203133A
:100240003C08603A031D25292629292980303321BD
:100250002929013083120313CE004E08BC07302930
:100260008B173229080083120313CD000830F222C5
:100270001030F22283120313CB01CC014C08803AD8
:10028000FF0080307F02031D472908304B02031C0A
:100290004A294B294D297B297B29831203134D1CA5
:1002A0005229532956290430FC2258290430F222BD
:1002B0001030FC22831203134D08C9000310490CAF
:1002C000CA004A08CD001030F22201308312031315
:1002D000CB070318CC0A0030CC074C08803AFF004B
:1002E00080307F02031D762908304B02031C7929D8
:1002F0007A294D297B290830FC2200000830F2229F
:10030000080083120313CE010C304E02031C89290E
:100310008A298C29C729C7294E08CB004E08023EDE
:10032000013E94290310CB0DFF3E031D92294B087B
:10033000CC004C08CD000530CB004B08C7004E0860
:10034000C82283120313CC004C08CD004D08422272
:1003500083120313CB004E082C3E84004B088313FA
:1003600080004D08752283120313CB004E08203EF7
:1003700084004B08831380000130CB004B08CE076C
:100380000C304E02031CC529C6298C29C729080038
:100390001120E22283120313D1010230FC22D02962
:1003A0000B1DD329D429F229831203133B08023AE7
:1003B000031DDB29DC29F02943083D06031DE12943
:1003C000E229E829C3013E03FF3A8100E020F02939
:1003D000013083120313D0005008C307F029F0291D
:1003E0000B11F229831203130C1CF729F829D029C9
:1003F0000130D0005008C40728304402031C012AF1
:10040000022A042AE222042A831203130C10D029A0
:10041000D029D029102883120313CA010C304A02B4
:10042000031C132A142A162A412A412A4A082C3E60
:100430008400831300083C06031D1F2A202A242A57
:100440000230FC22412A412A831203134A08203E2B
:100450008400831300083C06031D2F2A302A342A07
:100460000230F222412A412A013083120313C900CB
:100470004908CA070C304A02031C3F2A402A162AA0
:10048000412A080083120313C9004908C70047071F
:10049000C8004808C900C908031D4F2A502A532A1A
:1004A0007F30742A742A1F3049020318582A592AA7
:1004B0005D2A4908013E742A742A3D304902031816
:1004C000622A632A672A4908033E742A742A5B3029
:1004D000490203186C2A6D2A712A4908053E742ABC
:1004E000742A4908073E742A080083120313C900BE
:1004F0004908C7004707C8004808C9001E3049021C
:100500000318832A842A882A4908023E9F2A9F2AA0
:100510003C30490203188D2A8E2A922A4908043E4B
:100520009F2A9F2A5A3049020318972A982A9C2A00
:100530004908063E9F2A9F2A4908083E9F2A08002C
:100540000B1CA32AA42ABB2A861EA72AA82AAD2AE6
:10055000861FAB2AAC2AB92AAD2AF908031DB12A95
:10056000B22AB72A7B20F9010314F90DB92AF9013F
:10057000B92A0B10BB2A780883120313FF007708EF
:100580008A0076088400750E8300FE0E7E0E090038
:1005900083120313CA00C9014A1CCF2AD02AD52AC4
:1005A0004708C8004808C907D52A0310C70D03101B
:1005B000CA0CCA08031DDD2ADE2ACC2ADF2A490814
:1005C000E12A080083120313BB015A30332183123E
:1005D0000313BC01C401C30181018E018F010B1102
:1005E0000C10080083120313C8004809C70047080D
:1005F000B80538088500080083120313C8004808AE
:10060000C7004708B804380885000800F1007109E0
:10061000F000700883120313B8053808850008003D
:10062000F1007108F000700883120313B804380851
:1006300085000800F901831320308400473022230D
:100640008301C82964008001840A04060319003468
:040650000406232B4E
:02400E0098FF19
:00000001FF
