:10000000102817281D281D28FE00030EF5000408DF
:10001000F6000A08F700831203137F08F8005B2A32
:10002000D62A0230C2228312031310105D288F01DA
:100030008E01BF010C10101468280C1C20282128E8
:1000400025280130F2007208BF070F08F2000130C6
:100050000310F20DFF3E031D28280E08F3000730A1
:100060000310F30CFF3E031D302873087204F400E4
:100070007408BC003F08F20001300310F20DFF3E8F
:10008000031D3D280F08F30007300310F30CFF3E5B
:10009000031D452873087204F4007408BB00B801FE
:1000A000B9018E018F01BF010C1010143C03FF3AFF
:1000B0008100BE010B11682868283D0884000330C8
:1000C00004020318682800308A0001300407820007
:1000D0003D08023A03196D286E2873280130F2009A
:1000E0007208BD0773280230CC22762808008312DC
:1000F0000313C6000830AE221030AE228312031361
:10010000C401C5014508803AFF0080307F02031D0D
:100110008B2808304402031C8E288F289128BF2882
:10012000BF2883120313461C962897289A28043068
:10013000B8229C280430AE221030B8228312031358
:100140004608C2000310420CC3004308C60010302A
:10015000AE22013083120313C4070318C50A00300E
:10016000C5074508803AFF0080307F02031DBA288A
:1001700008304402031CBD28BE289128BF2808303F
:10018000B82200000830AE2208008B1381308312A1
:1001900003133802031CCD28CE28D0280E290E299F
:1001A0000222831203133808803A031DD828D92865
:1001B000DC2800307720DC2883120313B808031DE5
:1001C000E228E328E62810307720E628831203137C
:1001D0003808203A031DED28EE28F128203077203A
:1001E000F128831203133808403A031DF828F92830
:1001F000FC2840307720FC28831203133808603A2B
:10020000031D03290429072980307720072901309D
:1002100083120313C7004708B8070E298B1710294C
:10022000080083120313C7010C304702031C19296D
:100230001A291C29572957294708C4004708023E94
:10024000013E24290310C40DFF3E031D222944084A
:10025000C5004508C6000530C4004408C000470872
:10026000832283120313C5004508C6004608CF2128
:1002700083120313C40047082C3E840044088313F0
:1002800080004608302283120313C4004708203E32
:1002900084004408831380000130C4004408C70769
:1002A0000C304702031C552956291C2957290800E0
:1002B0009B219D2283120313C9010230B8226029B9
:1002C0000B1D632964298229831203133D08023A16
:1002D000031D6B296C2980293E083B06031D7129EB
:1002E00072297829BE013C03FF3A8100C52080298C
:1002F000013083120313C8004808BE0780298029F3
:100300000B118229831203130C1C87298829602969
:100310000130C8004808BF0728303F02031C91295C
:10032000922994299D229429831203130C10602989
:100330006029602910288316031385019F0100009E
:10034000831203138501BA010000FF3083160313E3
:10035000860005307720831603130F178F160F16AC
:10036000B1290F1DB429B529B129B629023077204A
:100370001121831203130C10831603130C10831224
:100380000313900110140B118B12831603138112A7
:1003900083120313BD018B150B178B1708008312F3
:1003A0000313C2004208C0004007C1004108C20058
:1003B000C208031DDC29DD29E0297F30012A012A3A
:1003C0001F3042020318E529E629EA294208013EC6
:1003D000012A012A3D3042020318EF29F029F429AD
:1003E0004208033E012A012A5B3042020318F92920
:1003F000FA29FE294208053E012A012A4208073E41
:10040000012A08000C30831203133902031C092A45
:100410000A2A0C2A2F2A2F2A39082C3E84008313FB
:1004200000083806031D152A162A192A0230B82298
:100430002F2A831203133908203E840083130008F7
:100440003806031D242A252A2F2A0230AE22013025
:1004500083120313C2004208B9072F2A2F2A08006B
:1004600083120313C2004208C0004007C1004108C4
:10047000C2001E30420203183E2A3F2A432A420885
:10048000023E5A2A5A2A3C3042020318482A492A74
:100490004D2A4208043E5A2A5A2A5A304202031868
:1004A000522A532A572A4208063E5A2A5A2A4208F2
:1004B000083E5A2A08000B1C5E2A5F2A762A861EEE
:1004C000622A632A682A861F662A672A742A682A8B
:1004D000F908031D6C2A6D2A722A1120F9010314F0
:1004E000F90D742AF901742A0B10762A7808831200
:1004F0000313FF0077088A0076088400750E8300D6
:10050000FE0E7E0E090083120313C300C201431CBA
:100510008A2A8B2A902A4008C1004108C207902AE3
:100520000310C00D0310C30CC308031D982A992A99
:10053000872A9A2A42089C2A080083120313BD01C5
:100540005A30772083120313B801B901BF01BE01ED
:1005500081018E018F010B110C100800831203130F
:10056000C1004109C0004008BA053A0885000800EA
:1005700083120313C1004108C0004008BA043A08BE
:1005800085000800F1007109F00070088312031360
:10059000BA053A0885000800F1007108F0007008FB
:1005A00083120313BA043A0885000800F901831383
:1005B000203084004030DE2283015829640080010D
:0C05C000840A0406031900340406DF2A34
:02400E0098FF19
:00000001FF
