:10000000102879287F287F28FE00030EF3000408BB
:10001000F4000A08F500831203137F08F600432B4F
:10002000A52A81249B2483120313C401DE08031D27
:100030001A281B2869280230F8241E280B1D2128A5
:1000400022284028831203136308023A031D29283B
:100050002A283E2864086106031D2F2830283628E8
:10006000E4016203FF3A81009E233E28013083129F
:100070000313C3004308E4073E283E280B11402821
:10008000831203130C1C4528462856280130C30050
:100090004308E50728306502031C4F2850285228E2
:1000A0009B245228831203130C105628771C5928BE
:1000B0005A28602886195D285E2860281425602843
:1000C000771083120313861D662877141E281E28B6
:1000D0006928831203135E08013A031D70287128F2
:1000E00074287228722874281028831203131010A1
:1000F000BF288F018E01E5010C101014CA280C1CBA
:100100008228832887280130F0007008E5070F084F
:10011000F00001300310F00DFF3E031D8A280E0889
:10012000F10007300310F10CFF3E031D9228710807
:100130007004F2007208E2006508F000013003105C
:10014000F00DFF3E031D9F280F08F100073003103C
:10015000F10CFF3E031DA72871087004F20072081D
:10016000E100D101D2018E018F01E5010C101014C4
:100170006203FF3A8100E4010B15CA28CA2863080C
:100180008400033004020318CA2800308A000130BA
:10019000040782006308023A0319CF28D028D62822
:1001A0000130F0007008E307D628D6280800831233
:1001B0000313D108031DDD28DE28F0285B08031D8A
:1001C000E228F028DB015A08D601D6075908D501E4
:1001D000D5075808D401D4075708D301D307F0280E
:1001E00053085106031DF528F628F828DC140429C5
:1001F00054085106031DFD28FE280429FD30A700E0
:100200002708DC050429042955085106031D09297E
:100210000A290C295C14262956085106031D1129A8
:1002200012292629FE30A7002708DC0526292629C1
:1002300026290030902133291F3090213329F030B6
:1002400090213329FF30902133293329831203135E
:100250005C088400043004020318332905308A0046
:10026000103004078200080083120313A800FE3038
:10027000A7002708A8053D293D2900008316031380
:1002800006164329432900008312031386108316A0
:10029000031386104C294C29000083120313061205
:1002A00083160313061255295529831203132808B0
:1002B000DC22003A03195D295E296129FF308F296C
:1002C0008F29831203132508DC22003A03196929B8
:1002D0006A296D29FF308F298F298312031326087D
:1002E000DC22003A0319752976297A29FF308F29F3
:1002F0008F297A29000083120313861083160313B3
:100300008610822900008316031306168729000031
:100310008316031386148D298D2900308F29080038
:1003200083120313A6000830EE241030EE2483124B
:100330000313A401A5012508803AFF0080307F0245
:10034000031DA42908302402031CA729A829AA29CF
:10035000D829D82983120313261CAF29B029B32921
:100360000430F824B5290430EE241030F824831228
:1003700003132608A2000310220CA3002308A600E2
:100380001030EE24013083120313A4070318A50ACA
:100390000030A5072508803AFF0080307F02031D4A
:1003A000D32908302402031CD629D729AA29D82901
:1003B0000830F82400000830EE24080083120313EC
:1003C000A7010C302702031CE629E729E929242A82
:1003D000242A2708A4002708023E013EF129031021
:1003E000A40DFF3E031DEF292408A5002508A60043
:1003F0000530A4002408A0002708B52483120313A5
:10040000A5002508A6002608102383120313A400C4
:100410002708453E84002408831380002608C9234A
:1004200083120313A4002708B43E84002408831316
:1004300080000130A4002408A7070C302702031C09
:10044000222A232AE929242A08002D308400A030FA
:1004500083120313A9000408AA001430AB00290872
:10046000840083130008AC00A90A2A0884002C0821
:100470008000AA0AAB0B2F2AC2015F2A42082D3E38
:1004800084000008A9002908A5004208013E2D3E6D
:1004900084000008AA002A08A600A3303421831291
:1004A0000313AB002B08C1004108031D582A5A2A28
:1004B0006A2A6A2A0230A9002908C2075F2A42086C
:1004C0002D3E840083130008FF3A031D682A692A21
:1004D0003E2A6A2A08000000831603138614702A35
:1004E0000000831603130616752A003083120313C7
:1004F00086180130A0002008A1007E2A0000831287
:100500000313061283160313061283120313210822
:10051000031D8B2AA22A8C2A000083120313861043
:10052000831603138610942A0000831603130616FD
:10053000992A00008316031386149F2A9F2AFF30EE
:10054000A42AA42A0030A42A0800F701F801831382
:100550004530840068300225B4308400C030022564
:1005600083160313CF24A000D024A100D124A2001D
:10057000D224A300D324A400D424A500D524A6000B
:10058000D624A700D724A800D824A900D924AA00DB
:10059000DA24AB00DB24AC00DC24AD00DD24AE00AB
:1005A000DE24AF00DF24B000E024B100E124B2007B
:1005B000E224B3008301112883120313A300A401D2
:1005C00008302402031CE52AE62AE82A042B042B1F
:1005D0002308A2002403FF3A073E013EF12A03103C
:1005E000A20CFF3E031DEF2A220801391E24013010
:1005F00083120313A2002208A40708302402031C5C
:10060000022B032BE82A042B6B22003A0319092B37
:100610000A2B0D2BFF300F2B0F2B00300F2B080058
:1006200083120313A2002208A0002007A1002108C2
:10063000A200A208031D1D2B1E2B212B7F30422B55
:10064000422B1F3022020318262B272B2B2B22088C
:10065000013E422B422B3D3022020318302B312B1E
:10066000352B2208033E422B422B5B30220203181B
:100670003A2B3B2B3F2B2208053E422B422B2208D4
:10068000073E422B0800DE08031D472B482B642B36
:100690000B1C4B2B4C2B5D2B861F4F2B502B5C2B9D
:1006A000F808031D542B552B5A2B7520F801031401
:1006B000F80D5C2BF8015C2B0B108B1C602B612B55
:1006C000642B8B10642B642B760883120313FF00BA
:1006D00075088A0074088400730E8300FE0E7E0E77
:1006E0000900831203136608102383120313A40066
:1006F0002408D7006608C92383120313A400240822
:10070000D8000C30A4002408A0006708B5241023EA
:1007100083120313A5002508D9000C30A400240877
:10072000A0006708B524C92383120313A500250878
:10073000DA000330A4002408DB0008008B138030AB
:10074000831203135102031CA62BA72BA92BC62B24
:10075000C62B51085F06031DAE2BAF2BB22B023008
:10076000F824BE2B8312031351086006031DB92B16
:10077000BA2BBE2B0230EE24BE2BBE2BD72001306D
:1007800083120313A8002808D107C62B8B17C82B88
:10079000080083120313A2002208A0002007A10072
:1007A0002108A2001E3022020318D72BD82BDC2BE5
:1007B0002208023EF32BF32B3C3022020318E12BDC
:1007C000E22BE62B2208043EF32BF32B5A302202B5
:1007D0000318EB2BEC2BF02B2208063EF32BF32B0C
:1007E0002208083EF32B080083120313DE01E324E2
:1007F00001304624DE212D30102383120313A8007C
:100800002808DF000F30C92383120313A80028082B
:10081000E0000C10831603130C10831203139001D5
:1008200010140B118B1283160313811283120313FE
:10083000E3018B150B120B178B17080083120313A0
:10084000A1000130A0002008A1052108031D292CCA
:100850002F2C0000831603138614382C382C00002C
:10086000831203138610831603138610382C382C3A
:1008700000008316031306163D2C00008312031399
:100880000612831603130612452C08008312031365
:10089000A7000530902183120313A708031D512CD4
:1008A000522C562C831603130F13592C8316031343
:1008B0000F178F160F165C2C0F1D5F2C602C5C2CF5
:1008C000612C023090210800013083120313A00034
:1008D0002008E6073C30660203186F2C702C722C3F
:1008E000802C802CE6010130A0002008E7070C30A6
:1008F000670203187C2C7D2C7F2C802C802CE70138
:100900000800003046248316031385019F018312DB
:1009100003138501DD01FF308316031386002522B2
:1009200083120313861A952C962C982C0A259A2C40
:10093000F4239A2C0800831203135E08031DA12CD4
:10094000A32CB42CB42CE3015A309021831203134E
:10095000E501E401DC01E324712383120313810127
:100960008E018F010B110C10080083120313A300DA
:10097000A201231CBC2CBD2CC22C2008A1002108E4
:10098000A207C22C0310A00D0310A30CA308031D83
:10099000CA2CCB2CB92CCC2C2208CE2C080000342D
:1009A0000034013411340D3483340E3480340F3468
:1009B0000134093400340A3400340B3400340C346C
:1009C0000034FF34FF34033083120313A0002008E7
:1009D000E7001930A0002008E60008008312031386
:1009E000A1002109A0002008DD055D0885000800A0
:1009F00083120313A1002108A0002008DD045D0874
:100A00008500080064008001840A0406031900348C
:100A10000406032D83120313DE010314DE0D080008
:0E0A200019291F291C2922296424712308008A
:02400E0018FF99
:00000001FF
