:100000001028332A392A3B2AFE00030EF000040888
:10001000F1000A08F200831203137F08F3002B2D6E
:10002000A32CC02583120313C101DD08031D192869
:100030001A288628DB25023041261E28F81D212893
:1000400022282528F8112F2225280B1D28282928A9
:100050004828831203136008023A031D3028312810
:10006000462861085E06031D362837283E28E10130
:100070005F03FF3A010781009A224628013083126C
:100080000313BF003F08E107462846280B11482804
:10009000831203130C1C4D284E2864280130BF0026
:1000A0003F08E20728306202031C572858286028BE
:1000B000E2016008031D5D286028DB2560286028B8
:1000C000831203130C1064288619672869280130ED
:1000D0006A280030BF0078196E2870280130712816
:1000E00000303F060319752876281E2878197928CC
:1000F0007A287C289E257C28781183120313861D7C
:10010000822878151E281E281E288628831203138D
:100110005D08013A031D8D288E283629C401C501CA
:1001200002304126932883120313861E98289928AB
:1001300093289A2802303726003053269F28B4216E
:1001400083120313BF003F08C20011294508013A7A
:10015000031DAB28AC28B628C408031DB028B1285D
:10016000B6283B30BF003F08C4001C29C508031D4A
:10017000BA28BB28C528C408031DBF28C028C52825
:100180000B30BF003F08C4001C290130C4021C29E9
:100190001C291C294508013A031DCF28D028D7283F
:1001A00044083B3A0319D528D628E228D728C508A1
:1001B000031DDB28DC28E42844080B3A031DE12852
:1001C000E228E428C4011C290130BF003F08C4070D
:1001D0001C291C29C508031DEE28EF28F32804302C
:1001E000BF003F08C3004508013A031DF828F9285D
:1001F000FE280330BF003F08C300FE284308BF00AD
:100200003F08A2004408C0004008A300A330FC221D
:1002100083120313C4010130BF003F08C5071C2926
:100220001C294208013A0319CA28113A0319A628C1
:10023000013A0319EA281C294508BF0005300310BC
:10024000BF0DFF3E031D1F2903103F0D440453261D
:100250000230831203134502031C2F2930299F28E3
:100260003129FE30532611283429362910288312CB
:100270000313A60000008316031306163F2900008F
:100280008312031386108316031386104729000078
:1002900083120313061283160313061250295029E2
:1002A000831203132608FE396F24003A03195929D3
:1002B0005A295D29FF30B329B32983120313220879
:1002C0006F24003A0319652966296A29FF30B3298A
:1002D000B3296A2900008316031306166F2900004C
:1002E00083120313861083160313861077290000E8
:1002F0008312031306128316031306128029802922
:1003000083120313260801386F24003A0319892940
:100310008A298D29FF30B329B329012583120313BC
:10032000A4002408A5002508A400230884002408AC
:10033000831380009C299C290000831203138610DC
:10034000831603138610A529A5290000831603131D
:100350000616AB29AB290000831603138614B129B6
:10036000B1290030B3290800781083120313861EC8
:10037000BA297814F81083120313051FC029F81442
:10038000C229C22983120313861AC729C929013039
:10039000CA290030F4007818CE29D0290130D1299B
:1003A00000307406031DD529D629EA29051BD92951
:1003B000DB290130DC290030F400F818E029E229BB
:1003C0000130E329003074060319E729E829C2291E
:1003D000EA29EA29F601C8307602031CF029F1293E
:1003E000F329FE29FE290130F4007408F607C8300D
:1003F0007602031CFC29FD29F329FE29F501781852
:10040000022A032A0A2A83120313861E082A092AAB
:100410000A2A7514781C0D2A0E2A152A8312031332
:10042000861A132A142A152AF514F818182A192AD4
:10043000202A83120313051F1E2A1F2A202A75163D
:10044000F81C232A242A2C2A83120313051B292A89
:100450002A2A2C2AF5162C2A75082E2A080083121F
:1004600003131010822A8F018E01E2010C10101468
:100470008D2A58233B2A83120313DA01DB0103146C
:10048000DB0D9A22831203130C1C472A482A4C2A9C
:100490000130AC002C08E2070F08AC00023003105A
:1004A000AC0DFF3E031D4F2A0E08AD0006300310B1
:1004B000AD0CFF3E031D572A2D082C04AE002E085C
:1004C000DF006208AC0002300310AC0DFF3E031DDC
:1004D000642A0F08AD0006300310AD0CFF3E031D6B
:1004E0006C2A2D082C04AE002E08DE005F03FF3AB4
:1004F0008100E1018E018F01E2010C1010140B113B
:100500008D2A8D2A600884000330040203188D2A86
:1005100000308A000130040782006008023A0319A3
:10052000922A932A992A0130AC002C08E007992AD4
:10053000992A08003D30831203135A02031CA12A92
:10054000A22AA42AFB2AFB2A0130DB025B08031D36
:10055000AA2AAC2AFB2AFB2A7812A501DA08031D75
:10056000B22AB32AB62AA5147816B62A5A08630600
:10057000031DBB2ABC2AC22A78163C30A4002408DA
:10058000A504C22A65085A06031DC72AC82ACE2A0E
:100590007816E030A4002408A504CE2A781AD12ABF
:1005A000D22AD72AF81ED52AD62ADA2AD72A250807
:1005B0005326DA2AF812781EDE2AF8160130831242
:1005C0000313A4002408DA075A08013A0319E92A98
:1005D000EA2AF12A5A081F3A031DEF2AF02AF62ABE
:1005E000F12A0230A4002408DB00FB2ADB010314FB
:1005F000DB0DFB2AFB2A080083120313A400FE3044
:10060000F7007708A405052B052B000083160313BC
:1006100006160B2B0B2B0000831203138610831678
:1006200003138610142B142B0000831203130612DD
:100630008316031306121D2B1D2B8312031324088C
:100640006F24003A0319252B262B292BFF30572B1B
:10065000572B8312031322086F24003A0319312BFE
:10066000322B352BFF30572B572B831203132308C4
:100670006F24003A03193D2B3E2B422BFF30572BA2
:10068000572B422B0000831203138610831603138B
:1006900086104A2B00008316031306164F2B00000A
:1006A000831603138614552B552B0030572B080047
:1006B00000300D26043083120313A7002708A20080
:1006C0002B30A8002808A300A3303721831203137E
:1006D000A9002908AA002A08031D6F2B712B9F2B44
:1006E0009F2B2B083F39A7002708E4000330A70001
:1006F0002708A2002B30A8002808A300A330372128
:1007000083120313A9002908AA002A08031D892BB4
:100710008B2B9F2B9F2B2B087F39A7002708E300EB
:100720000530A7002708F4006408F5258312031399
:10073000A8002808E50001300D26A62BA62B0030C6
:100740005326023041268B13A52BA52B08008312BC
:100750000313A00008303726103037268312031306
:10076000A101A2012208803AFF0080307F02031D10
:10077000BB2B08302102031CBE2BBF2BC12BEF2B40
:10078000EF2B83120313201CC62BC72BCA2B04305C
:100790004126CC2B04303726103041268312031318
:1007A0002008F6000310760CF7007708A000103040
:1007B0003726013083120313A1070318A20A003061
:1007C000A2072208803AFF0080307F02031DEA2B37
:1007D00008302102031CED2BEE2BC12BEF2B080060
:1007E00029308400463083120313A5000408A600B4
:1007F0001430A7002508840083130008A800A50A68
:100800002608840028088000A60AA70BFA2BBE0140
:100810002B2C3E08293E84000008A5002508A200D4
:100820003E08013E293E84000008A6002608A300D9
:10083000A330FC2283120313A7002708BD003D0844
:10084000031D232C262CFF30362C362C0230A5001D
:100850002508BE072B2C3E08293E84008313000880
:10086000FF3A031D342C352C092C362C08000000CF
:100870008316031386143C2C0000831603130616FC
:10088000412C00308312031386180130F4007408E1
:10089000F5004A2C0000831203130612831603137B
:1008A00006127508031D552C6C2C562C0000831263
:1008B000031386108316031386105E2C0000831624
:1008C00003130616632C0000831603138614692C89
:1008D000692CFF306E2C6E2C00306E2C08008312B9
:1008E0000313A000A10108302102031C782C792CED
:1008F0007B2C972C972C2008F6002103FF3A073E0B
:10090000013E842C0310F60CFF3E031D822C76085A
:10091000013978250130F600760883120313A10708
:1009200008302102031C952C962C7B2C972C372405
:10093000003A03199C2C9D2CA02CFF30A22CA22C39
:100940000030A22C0800F801F90183135A3084000A
:1009500066304B262326C6002426C7002526C8005D
:100960002626C9002726CA002826CB002926CC0027
:100970002A26CD002B26CE002C26CF002D26D000F7
:100980002E26D1002F26D2003026D3003126D400C7
:100990003226D5003326D6003426D7003526D80097
:1009A0003626D9008301112883120313DD01F023B9
:1009B000003A0319DC2CDD2CDF2CFA2CFA2C5823FE
:1009C00001300D26831203130C10831603130C1031
:1009D00083120313900110140B118B12831603134F
:1009E000811283120313E0018B150B120B178B1767
:1009F000002D002D0230412600305326FF2CFF2C05
:100A0000080083120313A101A00108302002031C77
:100A10000A2D0B2D0D2D242D242D2108F6007607EF
:100A2000F7007708A1005225F60076088312031319
:100A3000A1040130F6007608A00708302002031C4C
:100A4000222D232D0D2D242D003078258312031304
:100A500021082A2D0800DD08031D2F2D302D472DDC
:100A60000B1C332D342D472D861F372D382D442D4B
:100A7000F908031D3C2D3D2D422DF815F9010314F5
:100A8000F90D442DF901442D0B10472D472D730806
:100A9000FF0072088A0071088400700E8300FE0E49
:100AA0007E0E09000000831603138614572D0000E4
:100AB0008316031306165C2D003083120313861869
:100AC0000130F4007408F500652D00008312031353
:100AD00006128316031306127508031D702D742D5C
:100AE0000130772D772D772D0030772D772D080069
:100AF000F5000130F4007408F5057508031D812D1B
:100B0000872D0000831603138614902D902D00006E
:100B1000831203138610831603138610902D902DD5
:100B20000000831603130616952D0000831203138D
:100B300006128316031306129D2D08000130F400DF
:100B4000740883120313E3073C3063020318A92DD2
:100B5000AA2DAC2DBF2DBF2DE3010130F400740888
:100B6000E4070530F4007408E5070C30640203184C
:100B7000BA2DBB2DBD2DBF2DBF2DE401E501080011
:100B800000300D26831603138501403085009F0138
:100B9000831203138501DC01FF30831603138600E3
:100BA00083120313861AD52DD62DD82D6026DA2D63
:100BB000D424DA2D0800831203135D08031DE12DF0
:100BC000E32DF42DF42DE0015A3053268312031344
:100BD000E201E101DA0158238312031381018E013E
:100BE0008F010B110C10F8110800F700F601771CAB
:100BF000FA2DFB2D002E7408F5007508F607002E5F
:100C00000310F40D0310F70CF708031D082E092E2E
:100C1000F72D0A2E76080C2E0800F400F408031DA8
:100C2000122E132E172E831603130F131A2E83164C
:100C300003130F178F160F161D2E0F1D202E212E9A
:100C40001D2E222E080000340034013411340D34DE
:100C500083340E3480340F340134093400340A34C0
:100C600000340B3400340C340034FF34FF34F5000E
:100C70007509F400740883120313DC055C08850011
:100C80000800F5007508F400740883120313DC04EF
:100C90005C088500080064008001840A04060319CA
:100CA000003404064C2E83120313A3002308A72349
:100CB0005A26080008304126000008303726080070
:0C0CC00083120313DD010314DD0D080096
:02400E0018FF99
:00000001FF
