:02000000562F79
:100EAC00FA018301BC2FF1007108F0007008FA04FC
:100EBC007A088312031385000800F1007109F00011
:100ECC007008FA057A08831203138500080083164C
:100EDC00031385019F010000831203138501FA019E
:100EEC0000000800F6000830632710306327F40177
:100EFC00F5017508803AFF0080307F02031D882FB2
:100F0C0008307402031C8B2F8C2F8E2FB62FB62F0C
:100F1C00761C912F922F952F04305927972F043040
:100F2C006327103059277608F2000310720CF30077
:100F3C007308F600103063270130F4070318F50A24
:100F4C000030F5077508803AFF0080307F02031DE2
:100F5C00B12F08307402031CB42FB52F8E2FB62F6F
:100F6C000830592700000830632708006D27F90165
:100F7C005A30782702305927F801C42FF908031D7D
:100F8C00C82FC92FCC2F02306327CC2F7908403AB9
:100F9C00031DD12FD22FDB2F023059270130F70040
:100FAC007708F80778087827DB2F0130F7007708E7
:100FBC00F907C42FC42FE42FE42FE42F0130F700DE
:100FCC007708F907031DEB2FEC2FE42F0000831299
:100FDC0003138514F22FF22F0130F7007708F9076D
:100FEC00031DF92FFA2FF22F000083120313851023
:040FFC00E42F0028B6
:02400E0098FF19
:00000001FF
