:100000000C9446000C945D000C945D000C945D0013
:100010000C945D000C945D000C945D000C945D00EC
:100020000C945D000C945D000C945D000C945D00DC
:100030000C945D000C945D000C945D000C945D00CC
:100040000C945D000C945D000C945D000C945D00BC
:100050000C945D000C945D000C945D000C945D00AC
:100060000C945D000C945D000C945D000C945D009C
:100070000C945D000C945D000C945D000C945D008C
:100080000C945D000C945D000C945D0011241FBE67
:10009000CFEFD0E1DEBFCDBF11E0A0E0B1E0E0E105
:1000A000F1E000E00BBF02C007900D92A030B10755
:1000B000D9F70E945F000C9486000C940000DF9337
:1000C000CF93CDB7DEB7A1E3B0E0E1E3F0E080810C
:1000D00081608C93A7E3B0E0E7E3F0E080818F7765
:1000E0008C93E6E3F0E08081882344F4A2E3B0E05F
:1000F000E2E3F0E0808181608C93F3CFA2E3B0E093
:10010000E2E3F0E080818E7F8C93EBCFF894FFCF19
:00000001FF
