:100000000C9446000C945D000C945D000C945D0013
:100010000C945D000C945D000C945D000C945D00EC
:100020000C945D000C945D000C945D000C945D00DC
:100030000C945D000C945D000C945D000C945D00CC
:100040000C945D000C945D000C945D000C945D00BC
:100050000C945D000C945D000C945D000C945D00AC
:100060000C945D000C945D000C945D000C945D009C
:100070000C945D000C945D000C945D000C945D008C
:100080000C945D000C945D000C945D0011241FBE67
:10009000CFEFD0E1DEBFCDBF12E0A0E0B1E0E4E3FE
:1000A000FFE100E00BBF02C007900D92A035B10741
:1000B000D9F70E947F080C94980F0C940000DF93EE
:1000C000CF9300D00F92CDB7DEB78A8388E08983C3
:1000D000A1E3B0E0E1E3F0E0808182608C93A1E3F2
:1000E000B0E0E1E3F0E0808180688C93A1E3B0E0D0
:1000F000E1E3F0E0808180648C93A2E3B0E0E2E38E
:10010000F0E080818D7F8C93A2E3B0E0E2E3F0E049
:1001100080818F778C932EC08A81282F30E089814F
:10012000882F90E0A90102C0559547958A95E2F77E
:10013000CA0181709070882341F0A2E3B0E0E2E34D
:10014000F0E0808180648C9307C0A2E3B0E0E2E33A
:10015000F0E080818F7B8C93A2E3B0E0E2E3F0E0FB
:10016000808180688C93A2E3B0E0E2E3F0E08081DC
:100170008F778C9359815B838B81882311F041E0C9
:100180004B838B81998191509983882329F6A2E32F
:10019000B0E0E2E3F0E0808182608C930F900F90FA
:1001A0000F90CF91DF910895DF93CF9300D000D0CF
:1001B0000F92CDB7DEB79A8389836B831FC08B8183
:1001C000833028F420E032E03D832C8304C080E0BB
:1001D00094E09D838C83E981FA818081882F90E06F
:1001E0002C813D81822B932B91609C0189819A8186
:1001F00001969A838983C9010E94AD03E981FA813E
:1002000080818823E1F60F900F900F900F900F9050
:10021000CF91DF910895DF93CF9300D00F92CDB7A8
:10022000DEB79B838A83198211C089818B5F8983A2
:10023000EA81FB818081282F2F708A819B81019622
:100240009B838A838981622F0E943101EA81FB812D
:100250008081882351F70F900F900F90CF91DF91FD
:100260000895DF93CF9300D000D000D0CDB7DEB794
:100270008B836C831A8296C08A81282F30E03E835C
:100280002D838D819E8181309105F1F02D813E81FC
:10029000223031052CF48D819E81009761F02EC0B3
:1002A0002D813E8122303105C1F08D819E818330C8
:1002B0009105E1F023C08B81882F90E080589F4FFB
:1002C00092600E94AD031AC08B81882F90E0805409
:1002D0009F4F92600E94AD0311C08B81882F90E0E8
:1002E00080589F4F94600E94AD0308C08B81882F77
:1002F00090E080549F4F94600E94AD0319824BC0E0
:100300008A81823018F58C81482F50E08A81882FAD
:1003100090E09C01220F331F220F331F8981882F09
:1003200090E0280F391FCA0182959295907F9827F7
:10033000807F9827820F931FFC01E056FE4F80813B
:10034000882F90E093600E94AD0322C08C81482FDB
:1003500050E08A81882F90E09C01220F331F220FEA
:10036000331F8981882F90E0280F391FCA01829599
:100370009295907F9827807F9827820F931FFC018A
:10038000E056FE4F8081882F90E095600E94AD037B
:1003900089818F5F89838981843008F4B1CF8A8114
:1003A0008F5F8A838A81843008F466CF26960FB6E1
:1003B000F894DEBF0FBECDBFCF91DF910895DF93DC
:1003C000CF9300D00F92CDB7DEB789838981282FD4
:1003D00030E03B832A838A819B818130910581F1C2
:1003E0002A813B812230310509F45BC08A819B81DF
:1003F000009709F086C020E031E080E0B9010E945A
:10040000870228E031E081E0B9010E94870220E103
:1004100031E082E0B9010E94870228E131E083E007
:10042000B9010E94870220E231E084E0B9010E9414
:10043000870228E231E085E0B9010E94870261C0AD
:1004400020E331E080E0B9010E94870228E331E037
:1004500081E0B9010E94870220E431E082E0B90125
:100460000E94870228E431E083E0B9010E948702FC
:1004700020E531E084E0B9010E94870228E531E0FF
:1004800085E0B9010E94870220E631E086E0B901EB
:100490000E94870228E631E087E0B9010E948702C6
:1004A00030C020E731E080E0B9010E94870228E7F0
:1004B00031E081E0B9010E94870220E831E082E06A
:1004C000B9010E94870228E831E083E0B9010E9467
:1004D000870220E931E084E0B9010E94870228E91F
:1004E00031E085E0B9010E94870220EA31E086E030
:1004F000B9010E94870228EA31E087E0B9010E9431
:1005000087020F900F900F90CF91DF910895DF93A6
:10051000CF9300D000D00F92CDB7DEB78A837C8313
:100520006B8388E089838A81880F880F880F8A838C
:100530008A81882F90E0806496600E94AD030FC08E
:10054000EB81FC818081882F90E097609C018B81FA
:100550009C8101969C838B83C9010E94AD03898194
:100560008D838D81882311F081E08D838D81998128
:1005700091509983882321F780E896E00E94AD038B
:100580000F900F900F900F900F90CF91DF910895E3
:10059000DF93CF9300D000D000D0CDB7DEB78B83F0
:1005A0006C838C8181508C838B81282F30E03E833B
:1005B0002D838D819E8182309105F9F02D813E81C0
:1005C0002330310534F48D819E818130910561F0B5
:1005D0002FC02D813E8123303105C1F08D819E8158
:1005E00084309105E1F024C08C81882F90E0805800
:1005F0009F4F92609A83898323C08C81882F90E0DB
:1006000080549F4F92609A8389831AC08C81882F6F
:1006100090E080589F4F94609A83898311C08C81A9
:10062000882F90E080549F4F94609A83898308C0FC
:100630008C81882F90E080589F4F96609A838983A1
:1006400089819A810E94AD0326960FB6F894DEBF89
:100650000FBECDBFCF91DF910895DF93CF9300D030
:1006600000D000D0CDB7DEB79C838B831A8268C0E0
:100670008A81282F30E03E832D838D819E818130B9
:100680009105D1F02D813E81223031052CF48D81F0
:100690009E81009761F01EC02D813E812230310580
:1006A00081F08D819E818330910581F013C080E8B7
:1006B00092E00E94AD030EC080EC92E00E94AD0378
:1006C00009C080E894E00E94AD0304C080EC94E08F
:1006D0000E94AD0319822EC0EB81FC8180818823AA
:1006E00029F488E2898385E08A831CC0EB81FC8140
:1006F00080818A3019F488E2898314C08A8183302A
:1007000048F4EB81FC818081882F90E093600E9407
:10071000AD0308C0EB81FC818081882F90E095605B
:100720000E94AD038B819C8101969C838B83898180
:100730008F5F89838981883278F28A818F5F8A838B
:100740008A81843008F494CF26960FB6F894DEBFE1
:100750000FBECDBFCF91DF910895DF93CF93CDB77B
:10076000DEB762970FB6F894DEBF0FBECDBF9A8B8F
:10077000898B188A89899A8980709170009719F0FD
:1007800088898160888B89899A89807092700097A6
:1007900019F088898460888B89899A89807094701F
:1007A000009719F088898260888B8989982F907FBB
:1007B0008889892B8F878F850E945F008889982F71
:1007C000997F8989807F892B8F878F850E945F0021
:1007D0008989982F9295907F8889892B8F878F851B
:1007E0000E945F008889982F997F89898295807FF0
:1007F000892B8F878F850E945F0080E090E0A0E0CA
:10080000B0E48B879C87AD87BE876B857C858D85A3
:100810009E8526E636E646E655E40E94310BDC016D
:10082000CB018F839887A987BA876F81788589855F
:100830009A8520E030E040E85FE30E94370D88238E
:100840002CF481E090E09E838D833FC06F8178859A
:1008500089859A8520E03FEF4FE757E40E94D70C47
:1008600018164CF56B857C858D859E8520E030E0E3
:1008700040E251E40E94310BDC01CB01BC01CD010F
:100880000E945B09DC01CB019E838D830FC080E752
:1008900091E09C838B838B819C810197F1F79C83F2
:1008A0008B838D819E8101979E838D838D819E8117
:1008B000009769F714C06F81788589859A850E94B1
:1008C0005B09DC01CB019E838D838D819E819A83A0
:1008D000898389819A810197F1F79A838983629646
:1008E0000FB6F894DEBF0FBECDBFCF91DF91089554
:1008F0000F931F93DF93CF93CDB7DEB7C456D0408D
:100900000FB6F894DEBF0FBECDBFFE01EF59FF4F0B
:1009100080E090E0A0EFB1E480839183A283B38371
:100920008E01035A1F4FFE01EF59FF4F6081718105
:100930008281938126E636E646E655E40E94310B35
:10094000DC01CB01F80180839183A283B383FE0194
:10095000E35AFF4F608171818281938120E030E012
:1009600040E85FE30E94370D882344F4FE01E55A16
:10097000FF4F81E090E09183808364C0FE01E35AE1
:10098000FF4F608171818281938120E03FEF4FE7CB
:1009900057E40E94D70C18160CF043C0FE01EF5923
:1009A000FF4F608171818281938120E030E040E2DD
:1009B00051E40E94310BDC01CB018E01055A1F4F1F
:1009C000BC01CD010E945B09DC01CB01F8019183E0
:1009D00080831FC0FE01E75AFF4F80E791E09183BB
:1009E0008083FE01E75AFF4F808191810197F1F7E3
:1009F000FE01E75AFF4F91838083DE01A55ABF4F66
:100A0000FE01E55AFF4F80819181019711969C93D9
:100A10008E93FE01E55AFF4F808191810097D1F6B8
:100A200027C08E01055A1F4FFE01E35AFF4F608118
:100A30007181828193810E945B09DC01CB01F80105
:100A400091838083DE01A95ABF4FFE01E55AFF4F13
:100A5000808191818D939C93FE01E95AFF4F8081A3
:100A600091810197F1F7FE01E95AFF4F918380834D
:100A700080E00E945F0086E30E945F0080E30E94A6
:100A80005F00FE01ED5AFF4F80E090E0A0EAB0E485
:100A900080839183A283B3838E01015B1F4FFE018C
:100AA000ED5AFF4F608171818281938126E636E69F
:100AB00046E655E40E94310BDC01CB01F80180834E
:100AC0009183A283B383FE01E15BFF4F608171815B
:100AD0008281938120E030E040E85FE30E94370D9F
:100AE000882344F4FE01E35BFF4F81E090E09183B3
:100AF000808364C0FE01E15BFF4F60817181828170
:100B0000938120E03FEF4FE757E40E94D70C18167F
:100B10000CF043C0FE01ED5AFF4F6081718182816C
:100B2000938120E030E040E251E40E94310BDC018F
:100B3000CB018E01035B1F4FBC01CD010E945B09FD
:100B4000DC01CB01F801918380831FC0FE01E55BCE
:100B5000FF4F80E791E091838083FE01E55BFF4FCB
:100B6000808191810197F1F7FE01E55BFF4F918351
:100B70008083DE01A35BBF4FFE01E35BFF4F8081FB
:100B80009181019711969C938E93FE01E35BFF4F39
:100B9000808191810097D1F627C08E01035B1F4FA2
:100BA000FE01E15BFF4F60817181828193810E9430
:100BB0005B09DC01CB01F80191838083DE01A75B37
:100BC000BF4FFE01E35BFF4F808191818D939C932A
:100BD000FE01E75BFF4F808191810197F1F7FE01F4
:100BE000E75BFF4F9183808386E30E945F0080E391
:100BF0000E945F00FE01EB5BFF4F80E090E0A8ECFD
:100C0000B2E480839183A283B3838E010F5B1F4F75
:100C1000FE01EB5BFF4F608171818281938122E550
:100C200039E44DE950E40E94310BDC01CB01F801BD
:100C300080839183A283B383FE01EF5BFF4F6081CA
:100C400071818281938120E030E040E85FE30E947F
:100C5000370D882334F481E0FE01E05CFF4F808390
:100C60009DC0FE01EF5BFF4F6081718182819381A6
:100C700020E030E04FE753E40E94D70C18160CF048
:100C80007EC0FE01EB5BFF4F6081718182819381A9
:100C900020E030E04AE754E40E942B0CDC01CB0159
:100CA0008CAF9DAFAEAFBFAF6CAD7DAD8EAD9FAD28
:100CB00026E636E646E655E40E94310BDC01CB0120
:100CC00088AF99AFAAAFBBAF68AD79AD8AAD9BAD28
:100CD00020E030E040E85FE30E94370D88232CF4E9
:100CE00081E090E09FAB8EAB3FC068AD79AD8AAD3F
:100CF0009BAD20E03FEF4FE757E40E94D70C18165A
:100D00004CF56CAD7DAD8EAD9FAD20E030E040E2A6
:100D100051E40E94310BDC01CB01BC01CD010E94EA
:100D20005B09DC01CB019FAB8EAB0FC080E791E08C
:100D30009DAB8CAB8CA99DA90197F1F79DAB8CABBA
:100D40008EA99FA901979FAB8EAB8EA99FA90097F3
:100D500069F72DC068AD79AD8AAD9BAD0E945B0986
:100D6000DC01CB019FAB8EAB8EA99FA99BAB8AAB5D
:100D70008AA99BA90197F1F79BAB8AAB18C0FE012A
:100D8000EF5BFF4F60817181828193810E945B09DB
:100D9000DC01CB01FE01E05CFF4F8083FE01E05CE3
:100DA000FF4F808189AB89A98A95F1F789AB86E3EA
:100DB0000E945F0080E30E945F0080E090E0A8EC6A
:100DC000B2E48DA79EA7AFA7B8AB6DA57EA58FA5F2
:100DD00098A922E539E44DE950E40E94310BDC0189
:100DE000CB0189A79AA7ABA7BCA769A57AA58BA5B4
:100DF0009CA520E030E040E85FE30E94370D8823A7
:100E00001CF481E088A791C069A57AA58BA59CA553
:100E100020E030E04FE753E40E94D70C18160CF0A6
:100E20007BC06DA57EA58FA598A920E030E04AE79C
:100E300054E40E942B0CDC01CB018CA39DA3AEA338
:100E4000BFA36CA17DA18EA19FA126E636E646E652
:100E500055E40E94310BDC01CB0188A399A3AAA31E
:100E6000BBA368A179A18AA19BA120E030E040E862
:100E70005FE30E94370D88232CF481E090E09F8F80
:100E80008E8F3FC068A179A18AA19BA120E03FEF8E
:100E90004FE757E40E94D70C18164CF56CA17DA1C2
:100EA0008EA19FA120E030E040E251E40E94310B8E
:100EB000DC01CB01BC01CD010E945B09DC01CB014F
:100EC0009F8F8E8F0FC080E791E09D8F8C8F8C8DD0
:100ED0009D8D0197F1F79D8F8C8F8E8D9F8D019742
:100EE0009F8F8E8F8E8D9F8D009769F724C068A18C
:100EF00079A18AA19BA10E945B09DC01CB019F8F94
:100F00008E8F8E8D9F8D9B8F8A8F8A8D9B8D019763
:100F1000F1F79B8F8A8F0FC069A57AA58BA59CA539
:100F20000E945B09DC01CB0188A788A5898F898D88
:100F30008A95F1F7898F86E20E945F0080E20E9425
:100F40005F0080E090E0A8ECB2E48D8B9E8BAF8BCD
:100F5000B88F6D897E898F89988D22E539E44DE9B6
:100F600050E40E94310BDC01CB01898B9A8BAB8B57
:100F7000BC8B69897A898B899C8920E030E040E8C4
:100F80005FE30E94370D88231CF481E0888B91C0B9
:100F900069897A898B899C8920E030E04FE753E4A6
:100FA0000E94D70C18160CF07BC06D897E898F8942
:100FB000988D20E030E04AE754E40E942B0CDC01DD
:100FC000CB018C879D87AE87BF876C857D858E859D
:100FD0009F8526E636E646E655E40E94310BDC01A5
:100FE000CB0188879987AA87BB87688579858A8599
:100FF0009B8520E030E040E85FE30E94370D8823C6
:101000002CF481E090E09F838E833FC068857985D2
:101010008A859B8520E03FEF4FE757E40E94D70C7D
:1010200018164CF56C857D858E859F8520E030E017
:1010300040E251E40E94310BDC01CB01BC01CD0147
:101040000E945B09DC01CB019F838E830FC080E788
:1010500091E09D838C838C819D810197F1F79D8325
:101060008C838E819F8101979F838E838E819F8148
:10107000009769F724C0688579858A859B850E94D9
:101080005B09DC01CB019F838E838E819F819B83D3
:101090008A838A819B810197F1F79B838A830FC0A2
:1010A00069897A898B899C890E945B09DC01CB0163
:1010B000888B8889898389818A95F1F7898388E279
:1010C00096E00E94AD0388E096E00E94AD0381E0C7
:1010D00096E00E94AD0386E096E00E94AD038FE0AB
:1010E00096E00E94AD03CC59DF4F0FB6F894DEBFF7
:1010F0000FBECDBFCF91DF911F910F910895DF9368
:10110000CF93CDB7DEB72F970FB6F894DEBF0FBEE3
:10111000CDBF0E94360982E00E94DF0181E061E0DC
:101120000E94C80280E492E061E00E94D40084E062
:1011300061E00E94C80280E492E064E00E94D40072
:1011400082E061E00E94C80280E492E062E00E94D6
:10115000D40083E061E00E94C80280E492E063E092
:101160000E94D4001F8675C080E090E0A0E2B1E448
:101170008B879C87AD87BE876B857C858D859E859B
:1011800026E636E646E655E40E94310BDC01CB014B
:101190008F839887A987BA876F81788589859A8593
:1011A00020E030E040E85FE30E94370D88232CF414
:1011B00081E090E09E838D833FC06F817885898533
:1011C0009A8520E03FEF4FE757E40E94D70C1816AE
:1011D0004CF56B857C858D859E8520E030E040E276
:1011E00051E40E94310BDC01CB01BC01CD010E9416
:1011F0005B09DC01CB019E838D830FC080E791E00A
:101200009C838B838B819C810197F1F79C838B83DB
:101210008D819E8101979E838D838D819E81009714
:1012200069F714C06F81788589859A850E945B096A
:10123000DC01CB019E838D838D819E819A8389837E
:1012400089819A810197F1F79A8389838F858F5FCE
:101250008F878F85843608F487CF81E096E00E94DF
:10126000AD0380E492E00E940B01FFCFDF93CF93A8
:10127000CDB7DEB7A1E3B0E0E1E3F0E080818062CA
:101280008C93A1E3B0E0E1E3F0E0808180688C938F
:10129000A1E3B0E0E1E3F0E0808180648C93A1E31E
:1012A000B0E0E1E3F0E0808182608C930E947804FA
:1012B000CF91DF910895EF92FF920F931F937B01DF
:1012C0008C0120E030E040E05FE40E94070D8823BD
:1012D0008CF0C801B70120E030E040E05FE40E94FC
:1012E000D30A0E94670D9B01AC0120503040404062
:1012F000504806C0C801B7010E94670D9B01AC01B0
:10130000B901CA011F910F91FF90EF900895A0E0DD
:10131000B0E0EDE8F9E00C94610FDC012B01FA017B
:101320009C91923008F439C1EB018881823008F435
:1013300033C1943069F4843009F02FC111969C9127
:1013400011978981981709F428C1A8E4B2E025C152
:10135000843009F421C18230A9F4923009F01DC112
:101360009A01AD0188E0EA010990AE01E901099214
:101370009E018150C1F7E201898111969C918923D8
:10138000818308C1923009F407C112962D903C90D8
:101390001397EB018A819B811496AD90BD90CD90FF
:1013A000DC901797EC80FD800E811F819101281B36
:1013B000390BB90137FF04C066277727621B730B0F
:1013C000603271050CF061C0121613066CF537011E
:1013D0004801062E04C096948794779467940A94E3
:1013E000D2F721E030E040E050E004C0220F331F8C
:1013F000441F551F6A95D2F721503040404050405D
:101400002E213F214023512321153105410551054E
:1014100021F021E030E040E050E079018A01E62847
:10142000F728082919293CC0232BD1F1260E371E95
:1014300035014601062E04C09694879477946794EC
:101440000A94D2F721E030E040E050E004C0220FDF
:10145000331F441F551F6A95D2F72150304040403A
:1014600050402A213B214C215D21211531054105A8
:10147000510521F021E030E040E050E059016A01DF
:10148000A628B728C828D9280BC0821593052CF0A8
:101490001C01AA24BB24650103C0EE24FF2487019C
:1014A00011969C91D20111968C91981709F445C020
:1014B000992339F0A80197012A193B094C095D09C4
:1014C00006C0A60195012E193F09400B510B57FD8F
:1014D00008C0118233822282248335834683578356
:1014E0001DC081E081833382228288279927DC0115
:1014F000821B930BA40BB50B84839583A683B783C0
:101500000DC0220F331F441F551F2483358346838C
:1015100057838281938101979383828324813581CC
:1015200046815781DA01C9010197A109B1098F5F8D
:101530009F4FAF4FBF4328F30BC09183338222826A
:10154000EA0CFB1C0C1D1D1DE482F582068317832B
:1015500083E08083248135814681578157FF1AC0FB
:10156000C901AA2797FDA095BA2F81709070A0702D
:10157000B0705695479537952795822B932BA42BC2
:10158000B52B84839583A683B7838281938101964B
:1015900093838283DF0101C0D201CD01CDB7DEB7D5
:1015A000E2E10C947D0FA0E2B0E0E9EDFAE00C94EA
:1015B0006D0F69837A838B839C832D833E834F8356
:1015C0005887E9E0EE2EF12CEC0EFD1ECE010196BF
:1015D000B7010E94900E8E010F5E1F4FCE0105963F
:1015E000B8010E94900E8A8991E089278A8BC701F1
:1015F000B801AE01475E5F4F0E9487090E94BB0D94
:10160000A096E6E00C94890FA0E2B0E0EAE0FBE0EF
:101610000C946D0F69837A838B839C832D833E8327
:101620004F835887F9E0EF2EF12CEC0EFD1ECE0112
:101630000196B7010E94900E8E010F5E1F4FCE01E2
:101640000596B8010E94900EC701B801AE01475E31
:101650005F4F0E9487090E94BB0DA096E6E00C94A4
:10166000890FA0E2B0E0E7E3FBE00C94610F69832F
:101670007A838B839C832D833E834F835887CE014F
:101680000196BE01675F7F4F0E94900ECE010596C6
:10169000BE016F5E7F4F0E94900E9985923088F058
:1016A00089898230C8F0943019F4823051F404C032
:1016B000843029F4923081F488E492E0C6C09230FC
:1016C00049F420E09A858A89981321E02A87CE017F
:1016D0000996BBC0823049F420E09A858A89981324
:1016E00021E02A8BCE014196B0C02D843E844F84E8
:1016F00058886D887E888F88988CEE24FF24870117
:10170000AA24BB24650140E050E060E070E0E0E026
:10171000F0E0C10181709070892BE9F0E60CF71CB4
:10172000081D191D9A01AB012A0D3B1D4C1D5D1DA5
:1017300080E090E0A0E0B0E0E614F70408051905A9
:1017400020F481E090E0A0E0B0E0BA01A901480FE8
:10175000591F6A1F7B1FAA0CBB1CCC1CDD1C97FEEB
:1017600008C081E090E0A0E0B0E0A82AB92ACA2A27
:10177000DB2A3196E032F10549F0660C771C881CB3
:10178000991C5694479437942794C3CFFA85EA89D5
:101790002B893C898B859C85280F391F2E5F3F4FF5
:1017A00017C0CA0181709070892B61F0169507955A
:1017B000F794E79480E090E0A0E0B0E8E82AF92A06
:1017C0000A2B1B2B76956795579547952F5F3F4FB3
:1017D00077FDE7CF0CC0440F551F661F771F17FD1D
:1017E0004160EE0CFF1C001F111F215030404030A3
:1017F00090E0590790E0690790E4790760F32B8F38
:101800003C8FDB01CA018F779070A070B07080347C
:101810009105A105B10561F447FD0AC0E114F10489
:101820000105110529F0405C5F4F6F4F7F4F4078F5
:101830001A8EFE1711F081E08A8F4D8F5E8F6F8FA9
:1018400078A383E0898FCE0149960E94BB0DA096B4
:10185000E2E10C947D0FA8E1B0E0E1E3FCE00C9440
:10186000690F69837A838B839C832D833E834F83A7
:101870005887B9E0EB2EF12CEC0EFD1ECE0101963F
:10188000B7010E94900E8E010F5E1F4FCE0105968C
:10189000B8010E94900E2985223008F47EC0398953
:1018A000323010F4B8017CC08A859A8989278A87EA
:1018B000243011F0223031F4231709F06EC068E4AF
:1018C00072E06EC0343039F41D861E861F86188A79
:1018D0001C861B8604C0323021F484E08987B7015E
:1018E0005FC02B853C858B899C89281B390B3C87E5
:1018F0002B87ED84FE840F851889AD88BE88CF883C
:10190000D88CEA14FB040C051D0540F4EE0CFF1CFA
:10191000001F111F215030403C872B8720E030E012
:1019200040E050E080E090E0A0E0B0E460E070E0F3
:10193000EA14FB040C051D0540F0282B392B4A2B1B
:101940005B2BEA18FB080C091D09B695A79597951E
:101950008795EE0CFF1C001F111F6F5F7F4F6F31CB
:10196000710531F7DA01C9018F779070A070B070FE
:1019700080349105A105B10561F427FD0AC0E11489
:10198000F1040105110529F0205C3F4F4F4F5F4FD7
:1019900020782D873E874F87588BBE01675F7F4F2A
:1019A000CB010E94BB0D6896EAE00C94850FA8E17C
:1019B000B0E0EDEDFCE00C946D0F69837A838B83CE
:1019C0009C832D833E834F83588789E0E82EF12C3A
:1019D000EC0EFD1ECE010196B7010E94900E8E0105
:1019E0000F5E1F4FCE010596B8010E94900E8985AB
:1019F000823040F08989823028F0C701B8010E9406
:101A0000080F01C08FEF6896E6E00C94890FA8E1FB
:101A1000B0E0EDE0FDE00C946D0F69837A838B8379
:101A20009C832D833E834F83588789E0E82EF12CD9
:101A3000EC0EFD1ECE010196B7010E94900E8E01A4
:101A40000F5E1F4FCE010596B8010E94900E89854A
:101A5000823040F08989823028F0C701B8010E94A5
:101A6000080F01C08FEF6896E6E00C94890FA8E19B
:101A7000B0E0EDE3FDE00C946D0F69837A838B8316
:101A80009C832D833E834F83588789E0E82EF12C79
:101A9000EC0EFD1ECE010196B7010E94900E8E0144
:101AA0000F5E1F4FCE010596B8010E94900E8985EA
:101AB000823040F08989823028F0C701B8010E9445
:101AC000080F01C081E06896E6E00C94890FACE055
:101AD000B0E0EDE6FDE00C94710F69837A838B83AF
:101AE0009C83CE010196BE016B5F7F4F0E94900EDA
:101AF0008D81823061F1823050F1843021F48E8109
:101B0000882351F12EC02F81388537FD20C06E818A
:101B10002F3131051CF06623F9F023C08EE190E0EF
:101B2000821B930B29853A854B855C8504C05695AD
:101B30004795379527958A95D2F76623B1F050954A
:101B40004095309521953F4F4F4F5F4F0EC020E09D
:101B500030E040E050E009C02FEF3FEF4FEF5FE78C
:101B600004C020E030E040E050E8B901CA012C9602
:101B7000E2E00C948D0FDF92EF92FF920F931F9390
:101B8000FC01E480F58006811781D180808182305C
:101B900048F480E090E0A0E1B0E0E82AF92A0A2BBE
:101BA0001B2BA5C0843009F49FC0823021F4EE24A1
:101BB000FF24870105C0E114F1040105110519F4A2
:101BC000E0E0F0E096C0628173819FEF62387907B0
:101BD0000CF05BC022E83FEF261B370B2A313105A2
:101BE0002CF020E030E040E050E02AC0B801A7012E
:101BF000022E04C076956795579547950A94D2F7BB
:101C000081E090E0A0E0B0E004C0880F991FAA1F17
:101C1000BB1F2A95D2F70197A109B1098E219F21F7
:101C2000A023B1230097A105B10521F081E090E048
:101C3000A0E0B0E09A01AB01282B392B4A2B5B2B9B
:101C4000DA01C9018F779070A070B070803491056F
:101C5000A105B10539F427FF09C0205C3F4F4F4F64
:101C60005F4F04C0215C3F4F4F4F5F4FE0E0F0E01B
:101C70002030A0E03A07A0E04A07A0E45A0710F09D
:101C8000E1E0F0E079018A0127C06038710564F570
:101C9000FB01E158FF4FD801C7018F779070A0700A
:101CA000B07080349105A105B10539F4E7FE0DC08F
:101CB00080E490E0A0E0B0E004C08FE390E0A0E01A
:101CC000B0E0E80EF91E0A1F1B1F17FF05C016958E
:101CD0000795F794E794319687E016950795F79462
:101CE000E7948A95D1F705C0EE24FF248701EFEF32
:101CF000F0E06E2F679566276795902F9F77D794B2
:101D0000DD24D7948E2F8695492F462B582F5D2999
:101D1000B701CA011F910F91FF90EF90DF900895D6
:101D2000FC01DB01408151812281622F6F7770E0DD
:101D3000221F2227221F9381892F880F822B282F71
:101D400030E0991F9927991F11969C93119721159F
:101D50003105A9F5411551056105710511F482E0C0
:101D600037C082E89FEF13969C938E9312979A0147
:101D7000AB0167E0220F331F441F551F6A95D1F74F
:101D800083E08C930DC0220F331F441F551F129602
:101D90008D919C911397019713969C938E93129714
:101DA000203080E0380780E0480780E4580758F387
:101DB00014962D933D934D935C93179708952F3F61
:101DC000310579F4411551056105710519F484E077
:101DD0008C93089564FF03C081E08C9312C01C9221
:101DE00010C02F57304013963C932E93129783E0E8
:101DF0008C9387E0440F551F661F771F8A95D1F794
:101E0000706414964D935D936D937C93179708952A
:101E10001F93DC01FB019C91923008F447C0808144
:101E2000823008F443C0943051F411961C918430F0
:101E300099F58181682F70E0611B71093FC0843082
:101E400021F0923031F48230B9F18181882389F117
:101E50002DC011961C9111978230F1F081811817D5
:101E6000D9F412962D913C91139782819381821718
:101E7000930794F028173907BCF014968D919D9123
:101E80000D90BC91A02D2481358146815781281762
:101E900039074A075B0718F4112341F00AC082177B
:101EA0009307A407B50740F4112319F061E070E02F
:101EB00005C06FEF7FEF02C060E070E0CB011F91C3
:101EC00008952F923F924F925F926F927F928F92DE
:101ED0009F92AF92BF92CF92DF92EF92FF920F93B9
:101EE0001F93CF93DF93CDB7DEB7CA1BDB0B0FB6C3
:101EF000F894DEBF0FBECDBF09942A883988488880
:101F00005F846E847D848C849B84AA84B984C88415
:101F1000DF80EE80FD800C811B81AA81B981CE0F0C
:101F2000D11D0FB6F894DEBF0FBECDBFED010895F1
:041F3000F894FFCF53
:101F34000E1F1F1F1F1F0E000010080402010000C7
:101F4400101010101010101018181818181818184D
:101F54001C1C1C1C1C1C1C1C1E1E1E1E1E1E1E1EAD
:101F64001F1F1F1F00000000000000001F1F1F1F75
:101F740001070F0F1F1F1F1F101C1E1E1F1F1F1FD7
:101F84001F1F1F1F0F0F07011F1F1F1F1E1E1C10C7
:101F940000000000101C1E1E0000000F0F0F0F0099
:101FA4001F1F1F1F1F0000000000001F1F1F1F1FF7
:101FB400000103070F1F1F000010181C1E1F1F0025
:101FC400001F1F0F07030100001F1F1E1C18100015
:101FD40002000003FF2020FFFF2020FF0401010571
:101FE4002001FF202020FF202020FF202001FF01CE
:101FF400020000032020010502002020FF0101014E
:102004000200000320200105202020030401010513
:10201400FF202020FF202020FF01FF012020FF209F
:10202400FF000000FF010106202020FF040101053C
:1020340002000003FF010106FF2020FF0401010547
:10204400000000FF202020FF2020FF2020FF202070
:10205400020000030401010502202003040101051C
:1020640002000003040101FF202020FF04010105F8
:1020740030313233343536000000000000000000F7
:00000001FF
